:020000040000fa
:080000000002040000000000f2
:020000040000fa
:10000800a6020000a6020000a6020000a602000048
:10001800a6020000a6020000a6020000a602000038
:10002800a6020000a6020000a60200008e21000021
:10003800a6020000a6020000a6020000a602000018
:10004800a6020000a6020000a6020000a602000008
:10005800a6020000a2210000a6020000a6020000dd
:10006800a6020000a6020000a6020000a6020000e8
:10007800a6020000a6020000a6020000a6020000d8
:10008800a6020000a6020000a6020000a6020000c8
:10009800a6020000a6020000a6020000a6020000b8
:1000a800a6020000a6020000a6020000a6020000a8
:1000b800a6020000a6020000a6020000a602000098
:1000c800a6020000a6020000a6020000a602000088
:1000d800a6020000a6020000a6020000a602000078
:1000e800a6020000a6020000a6020000a602000068
:1000f800a6020000a6020000a6020000a602000058
:10010800a6020000a6020000a6020000a602000047
:10011800a6020000a6020000a6020000a602000037
:10012800a6020000a6020000a6020000a602000027
:10013800a6020000a6020000a6020000a602000017
:10014800a6020000a6020000a6020000a602000007
:10015800a6020000a6020000a6020000a6020000f7
:10016800a6020000a6020000a6020000a6020000e7
:10017800a6020000a6020000a6020000a6020000d7
:10018800a6020000a6020000a6020000a6020000c7
:10019800a6020000a6020000a6020000a6020000b7
:1001a800a6020000a6020000a6020000a6020000a7
:1001b800a6020000a6020000a6020000a602000097
:1001c800a6020000a6020000a6020000a602000087
:1001d800a6020000a6020000a6020000a602000077
:1001e800a6020000a6020000a6020000a602000067
:0801f800a6020000a6020000af
:020000040000fa
:10020800a6020000a6020000a6020000a602000046
:10021800a6020000a6020000a6020000a602000036
:10022800a6020000a6020000a60200008e2100001f
:10023800a6020000a6020000a6020000a602000016
:10024800a6020000a6020000a6020000a602000006
:10025800a6020000a2210000a6020000a6020000db
:10026800a6020000a6020000a6020000a6020000e6
:10027800a6020000a6020000a6020000a6020000d6
:10028800a6020000a6020000a6020000a6020000c6
:10029800a6020000a6020000a6020000a6020000b6
:1002a800a6020000a6020000a6020000a6020000a6
:1002b800a6020000a6020000a6020000a602000096
:1002c800a6020000a6020000a6020000a602000086
:1002d800a6020000a6020000a6020000a602000076
:1002e800a6020000a6020000a6020000a602000066
:1002f800a6020000a6020000a6020000a602000056
:10030800a6020000a6020000a6020000a602000045
:10031800a6020000a6020000a6020000a602000035
:10032800a6020000a6020000a6020000a602000025
:10033800a6020000a6020000a6020000a602000015
:10034800a6020000a6020000a6020000a602000005
:10035800a6020000a6020000a6020000a6020000f5
:10036800a6020000a6020000a6020000a6020000e5
:10037800a6020000a6020000a6020000a6020000d5
:10038800a6020000a6020000a6020000a6020000c5
:10039800a6020000a6020000a6020000a6020000b5
:1003a800a6020000a6020000a6020000a6020000a5
:1003b800a6020000a6020000a6020000a602000095
:1003c800a6020000a6020000a6020000a602000085
:1003d800a6020000a6020000a6020000a602000075
:1003e800a6020000a6020000a6020000a602000065
:0803f800a6020000a6020000ad
:020000040000fa
:100400004fa020000eff20000e0188000000000019
:10041000000020000000e000020032000001200087
:10042000200288000c000700202422000100200088
:1004300011000700000020000000e0000200320070
:100440000000020000000000122202000000000074
:100450000040da000000fe004440a900e003200054
:100460000000e0000300320000002000a00188002e
:100470004440a80000000600910188008000780038
:100480000000eb0015003700e280400032a0b4000d
:100490009101ba00e280400032a0b4009102ba009b
:1004a000e280400032a0b4000002eb00472bde00e7
:1004b000f507b200602ce10004003a000059eb009f
:1004c0008301e900fdff3e00040037006128e100e0
:1004d000010032000082eb00040007001101ba00a5
:1004e0000200e000e8ff3a00000006003159ba00bf
:1004f0008301e9000c0032002159ba008301e900b0
:10050000080032000400e00003003a00e2804000ee
:1005100032a0b400f5ff370011d9ba008301e90019
:10052000faff3a008100e800e180400032a0b40008
:1005300000000600000000000000000000000000b5
:100540000000000000000000000000000040da0091
:100550000000fe000a00fa0011002000b1bf9f0059
:10056000c0bf9f006a805700490b07004fb8970033
:100570000080fa00000006000a00fa00e20f5000b6
:1005800020003e00a0468000e10f5000060032002f
:100590008023200045232000232320000423200063
:1005a0000000e00004003a008022200045222000e4
:1005b00023222000042220000600280014036300e8
:1005c00003003a000608780000002800140a7000b2
:1005d00013a8a30001003a0013a0a00002007800b5
:1005e000050037001388a300feff32003102fb0034
:1005f000840a78000000e9000000e000f9ff3a00fa
:100600000800370033002000b3bf9f00c0bf9f0029
:10061000d1bf9f00e2bf9f006a8057001e0b0700fa
:100620006fb99700020078000080fa000000060011
:100630000a00fa0051002000b1bf9f00c0bf9f0018
:100640006a805700160b07005fb897000080fa0019
:1006500000000600889fbe008004780010508000d3
:100660000000e00004003a000e0007000084eb00e8
:100670000000e00008003500185080000900e0008c
:100680000500320009004400060007000000e000f9
:1006900001003d000084eb00080078004f04be001c
:1006a00000000600800078000100e00003003a002e
:1006b0000000200010508800000005000080eb00c2
:1006c00002002000828f500002003e00115088007e
:1006d0000000eb000000060003f0a200889fbe00af
:1006e0008a9fbe008c1f78008100070088003300bd
:1006f0006450e1004f0032006420e10052003200fb
:1007000003826c0007003b000905d0000306d000ff
:10071000820f54000c065d00020039000200320016
:1007200089017800030678008582550004003d00a9
:100730000003fd008103fd008502ea008b85420075
:10074000840f720002003b0060001000e08018007f
:100750006011b8000005eb007a28e1000a003900ba
:1007600006007800c75ddd00f707b20087807500de
:100770002d003700828171000a0178006105600058
:100780008180d1000080d3008502e900f9ff3b00a1
:10079000060440008784480002003b006004140007
:1007a000e0841c000988a300070032008a817100e0
:1007b00082817100610164008904d1000884d30042
:1007c0008b05e800170037000978a30013003a00f2
:1007d0000b00e000130034008b05e900080444001e
:1007e00089844c000a4474000978a3000d003a0083
:1007f0000b00e000070034008b05e900080444000a
:1008000089844c0001003a000b0020000978a30005
:10081000f7ff32000001eb00020037008281710017
:100820000a0178000c0007000cf0a70001f0a000fe
:10083000400037006420e10002003a00838f6c0022
:10084000400033000801be000200be00390037003e
:100850006011b800720037008100200061805500ef
:100860000b003d000b00200061fe2f000100e100a5
:100870001d00340082817100610164008904d1008f
:100880000884d3000000e800faff3a00710020005d
:100890006100640003007000020060000900320083
:1008a00061044400e0844c000988a5000500320082
:1008b0008b05e8006808e10002003a008904d100d5
:1008c0000884d300f20f20000258e10005003d002b
:1008d000c75ddd00f907b200898075000800780067
:1008e000000006000bf827008b00780000000500d0
:1008f0000004be00790007000003be000405be002e
:100900000200be0075000700844f7500000006005d
:100910000200be006450e100050036006420e100e2
:10092000020036000968a30001003a000800be007a
:100930000160a0004f0678004f05be004f04be00c6
:1009400000000600f0ff2f00f1ff2700f9ff37003d
:10095000889fbe008a9fbe008c1f7800e4ff0700be
:10096000ebff330003866c006450e100240032008a
:100970006420e100270032006150e10022003200d3
:100980006120e100210032008b854200eb07b100bd
:100990000134b800003ab8000804420089844a00d3
:1009a000013ab8000030b8008880400009014a00d0
:1009b000040033000000400081804800020149002b
:1009c0008b05e900c909dd008301700001003200d8
:1009d00013002000c814de004814dd004709de00c3
:1009e0001200b200c808de00088470009aff0700f9
:1009f00001f0a1000cf0a70001f0a000cdff37002e
:100a00006120e100cfff32000801be000200be00fd
:100a1000f7ff37006150e100fcff3a00c9ff3700e3
:100a2000889fbe008a9fbe00008270000402710091
:100a300004827100260032000004be000200be00e5
:100a40006011b8006b092000950220000182cf00e0
:100a50000a0039000541b1000082cf0007003900cb
:100a60000541b1000982cf00040039000541b10001
:100a70000882cf00010039000541b1000542520053
:100a8000120032000a003b008281710061016400a3
:100a90008100d1000080d3008984d3000884d30072
:100aa0008b05e8000442e800f7ff3a000700370032
:100ab0000804440089844c000000480081804800fc
:100ac0008b05e9000442e900f9ff3a0062ff0700e4
:100ad0004f05be004f04be0000000600c70ade003e
:100ae000f107b200f50fb20008003200e1cf42007a
:100af000020032000170a00024000500810f700088
:100b0000010032000408050044000500810f700058
:100b100002003a00140005008502e90000004000d0
:100b200081c04800fcff3b000170a00024000500cc
:100b3000219020002f000700800078000080eb004b
:100b40000100e0000400350021902000a0002000fa
:100b5000020007004f80de0000000600889fbe00f4
:100b60008a1f78000004be00c90090006900900050
:100b7000808f5000050039000900780091000700bf
:100b80008080eb000000e00016003500084578008a
:100b90004900900008587800c004980019007800b7
:100ba00000b8a30004003a0000a8a3000700320028
:100bb000ea4f540005003a0009007800af0507002d
:100bc0008080eb000000e00006003a0000c020003a
:100bd000190060000200320049009000e004980013
:100be0008a80fb00010078004f0578004f04be00aa
:100bf00000000600889fbe008a9fbe008c1f780000
:100c000080047800010478002f003700c8009000ad
:100c100068009000808f50000400390008007800c0
:100c2000680007000000e0003a00350000402000a6
:100c3000180060000a003200a100200009007800be
:100c400050000700000678000c00e00004003200ad
:100c5000618514000a054600cfd5de000400370088
:100c6000090078003b0007000005be000006eb000d
:100c7000480090006801900000015100cf91de0013
:100c80008a0f51008b8f5900020031000205be000f
:100c90000006eb000a01be00890078002200070070
:100ca000480090000a004000400498000c00e0005a
:100cb0000400320008007800700507000000e00022
:100cc00014003a008a8444001904e000cfff3a007f
:100cd0000080200018006000060032000800780044
:100ce00066050700800078000080eb000100e0004e
:100cf00009003a0001c02000988060000000eb006d
:100d00000500320048009000600498000000eb00ed
:100d1000010037000080eb004f0678004f05be0051
:100d20004f04be00000006000202be008001eb007e
:100d30000400370061f0790061025200e0825a003d
:100d40008301e800e00f5200e08f5a00f9ff3a00fb
:100d500000000600800078000000eb00610ab80087
:100d60006101b800040341000000e800644179001b
:100d70000204e000f9ff3a0001005300cf80de00da
:100d800000000600889fbe006011b8006103b80033
:100d90006112b8000404430085844b0066427a0067
:100da000814f520001003a00880178000201e800fa
:100db0000404e000f5ff3a00030078004f04be0091
:100dc00000000600889fbe008a1f7800000478009b
:100dd000c8009000680190000000eb00828f500076
:100de0003d0039001800780022002900020160004f
:100df000e20f510007003200012024000000e00053
:100e000001003d0001202000008c70000080eb00fc
:100e1000310037000200260002006000820f5000ff
:100e200009003a0038009000808f50000600390019
:100e30000800780011050700800078000080eb00b2
:100e40000100e00024003a001805780000c02000ee
:100e50000000650019003a00a8049000600220001c
:100e600008004000808f540014003a000020200049
:100e70000100200070060700200498000000e00038
:100e800005003a0029049800490498008904e80004
:100e900039049800080037000a60a0000a0c7800a6
:100ea0004004980001202000808040003104980018
:100eb000400c9800500c98009a04070028009000fd
:100ec000500498003800900060049800000026004c
:100ed000180c70000000eb004f0578004f04be00b6
:100ee00000000600881f78008a9fbe00000478007a
:100ef000010078000205be00880078000202be00f2
:100f00001200200003002000a50507008a0f5000f2
:100f10008b8f5800010032000004eb0008007800bd
:100f20004f05be004f047800000006000000fa00e4
:100f3000e88157004fb997002190200020772000ca
:100f4000020007000080fa00000006006200fa00bc
:100f5000889fbe008a9fbe0000057800810478004b
:100f6000020478008300780060f92f000f00400031
:100f7000540507008a979f0099979f000000eb0097
:100f8000a09f9f001885fb008a04fb000a05ea0069
:100f90004f55de0050022000808f54000e003200ba
:100fa000e10f55000c003a00120020000300200061
:100fb000880078001f9097000f92970004000100ae
:100fc00090979f000000e0009d0032002f9897004e
:100fd0000000e800a09f9f000a0444005002200087
:100fe000808f5400040032000900e000e5ff3a0061
:100ff0002f989700930037000000eb00809f9f0020
:10100000f0979f00e0979f00d0979f00c0979f00a8
:10101000b0979f00c09f9f008004eb00080037003e
:10102000019f2000810050008100d000429e2000de
:10103000828040004f98970011007000c09f9f0071
:101040006141b8006148b80002054000e2457800ff
:101050008b00fb00009f2000d80407008904e800f3
:101060000000e000eeff3a00a1c2b30081cf5500be
:101070000e003a00bf8897000180e900b08f9f0002
:1010800010007800b09f9f000000e00005003d00c8
:101090000000ea00b09f9f004f9897000020a0003a
:1010a000c09f9f000a04e80012003700b09f9f0015
:1010b0006000b80006003700f3ff2700830f5000e0
:1010c000020032006a02b900040041008100e80019
:1010d0006152b8006109b80004044100644179001c
:1010e0000201fb000203b100e90f5100f2ff3600dc
:1010f000b09f9f00e0c2b300984f10000300320081
:101100000080eb00909f9f002100370008007800ce
:10111000a1c2b300d0cf100007003a003f8997006a
:101120008280e900b18f9f0091007800919f9f001d
:101130000004e800160037000000eb00909f9f00bd
:101140008000eb0006003700f3ff2700830f5000fc
:10115000020032006a02b900040041008100e80088
:101160000802e8008002eb006109b80002034200b7
:1011700083834a00644179000201fb000203b1004d
:10118000e90f5100f0ff3600909f9f0006047800a1
:10119000984478008900fb00c09d20008704070068
:1011a0000000e000020032000804e80001003700ff
:1011b0008044eb00a97f9f0080c6b30080cf54001d
:1011c00004003a0098cf14000a003a00664050002c
:1011d00006003700c0c6b30080cf540005003a00b7
:1011e00098cf140003003a0065404000a07f9f00a4
:1011f0000804e8001801fb00c3fb2f008f814100a9
:1012000061f92f008f80400080f92f000f0040000f
:10121000100007000000e00009003a00c1fb2f00a9
:101220008f80400080f92f000f0040005907070011
:101230000000e000020035000804e80051ff37001c
:101240000080eb004f05be004f04be000080fa0096
:1012500000000600889fbe008a1f78000004780006
:10126000824478000305780070c6b30080cf540034
:101270001a003c0000c0e90080cf5400c7003d00c8
:101280006d40500080cf5400740032000b003c00d1
:101290007140500080cf54002f013c0000c0e90095
:1012a00080cf5400bd003d0050c2b30080cf540039
:1012b000260132007c4040000500370030c6b300f4
:1012c00080cf54001a0032001e003c0000c0e9002c
:1012d00080cf540020013a00b0003700f0c6b300c0
:1012e00080cf54005d00320007003c006640500093
:1012f00080cf5400130032006540400080cf54007e
:1013000015013a00ce00370050c7b30080cf54001b
:10131000520032006340400080cf54004f00320042
:1013200002c7b30082cf54000b013a00f900370026
:101330001181e90082087800780090001275780029
:101340000b01370028609000c2c6b300824f5000e6
:1013500007003a001101780064005100800878000d
:101360001000be004f89de008201780011003700b6
:1013700012c7b300824f500003003200a2c6b30070
:10138000824f500006003a001101780068005100b9
:10139000800878005001be004000be000500370004
:1013a0001180e9008008780010007800cf80de000e
:1013b0006109b900009cbe000294be002862900042
:1013c00085c6b300854f52000d00320025c6b3001c
:1013d000854f520004003a000000fb00cf80de0081
:1013e0006109b9000800370045c7b300854f5200b6
:1013f00003003200e6c24200854f520004003a006a
:10140000cf80de006109b900009cbe000294be00de
:101410003802be002803be0078009000d1c2b3009d
:10142000e00f5200e08f5a00e00f5b00e08f5b009e
:1014300008003500881090000118a3000200320057
:10144000b1c2b300030037000108a3004e00320010
:1014500001c2b30001757800490037002860900090
:10146000c2c6b300824f500006003a001101780056
:1014700064005100800878001000be006011b800c0
:101480001100370012c7b300824f50000300320032
:10149000a2c6b300824f500006003a001101780046
:1014a00068005100800878005001be004000be0076
:1014b000050037001180e9008008780010007800ee
:1014c0008000eb006011b800009cbe000294be00da
:1014d0002862900085c6b300854f520003003a0091
:1014e0008000eb006011b8000e00370025c6b30085
:1014f000854f520004003a000080fb008000eb00a2
:101500006011b8000700370045c7b300854f52008f
:1015100003003200e6c24200854f520003003a0049
:101520006011b800009cbe000294be00081090003c
:101530000038a300140032003800be002801be00ad
:10154000e00f5000e08f5800e00f5900e08f590085
:101550000d00320080c7b30080cf5400030032007a
:1015600080c5b30080cf540007003a007800900097
:1015700001c3b300017578000000e8000975780028
:101580000000e80070049800780090000005450015
:101590006a0498008940780069003700286190004b
:1015a000c0c4b300804f510006003a00110178001a
:1015b00068005100800878005001be004000be0065
:1015c00005003700110178006400510080087800a0
:1015d0001000be00ec070700009cbe000294be0095
:1015e000b8009000780090000100e00002003d008b
:1015f000d1c2b30008003700881090000118a30082
:1016000002003200b1c2b300030037000108a3009a
:101610000400320001c2b300017578000000e80048
:101620007004980078009000000545006a04980056
:101630008900fb0008007800530007004e003700c7
:1016400028619000c3c6b3001180e900834f5100a8
:10165000240032000a003c00e4c15100834f5100d5
:101660002700320083c1e800834f5100150032008b
:1016700020c6b300804f510020003a000a00370016
:1016800043c7b300834f51001d003200e6c1410043
:10169000834f51001300320010c7b300804f510038
:1016a00016003a00060037001180e9008008780033
:1016b00010007800485c9000084878002e00370041
:1016c0001180e9008008780010007800680a900016
:1016d000cfa2de00612bb9000498be000690be00c8
:1016e0002500370080087800100078006809900015
:1016f000cf91de000288be001f0037001180e90094
:101700008008780010007800680c900008087800c5
:10171000190037001181e900820878001202780070
:10172000cfa2de00612bb900049cbe000694be006f
:10173000f8009000010545006a0498008040780098
:1017400008007800e30407000b00370078009000e1
:101750000975780006003700780090000005450004
:101760000904e00001003a0059c2b300094d7800b5
:101770000000e800700498000000eb004f057800be
:101780004f04be00000006004f04b000889fbe005a
:101790008a9fbe008c9fbe008e1f780000077800d5
:1017a00081f79f003e04be002e05be005e0890003b
:1017b0000000e00002003d0060002000500f980093
:1017c0008e00780000fb2f000f004000130307007d
:1017d000e20f50000a003a0030002000100f98007d
:1017e000b1c9b3000ff0970081404000609620001f
:1017f000e1cf50000d003e00209620000b00370086
:101800000000e0000f00340030002000100f9800ae
:10181000b1c9b3000ff1970081404100e09620006c
:10182000e1cf500001003e00a0962000ee009000a5
:10183000b0487800b0687800104078009040980078
:10184000170137000000e00005003a0002fb2f00fe
:101850000f014100001978008001eb000b013700f7
:101860006022b8006033b8000800be000a01be0064
:101870008d0607000000e00001003d000bf0a20013
:10188000705927008f9897000088b900026a2800d5
:1018900013002000e8060700640650008c9f9f009c
:1018a00016003b0063061600c0ff2f00000666000e
:1018b0008c01ea00839f9f008006eb000800be00b9
:1018c0000a01be000a0037000c08a300060032001f
:1018d000c36add0024972000048242005403be0046
:1018e0004402be00760707000c86d1008d06e80092
:1018f0000c00e000f4ff3c001b0037000c00e0008f
:101900001b003200c0ff2f00000666008c9f9f0066
:101910006000b8000200200003ff23008006eb00f7
:101920000a0037000c08a30006003200c36add007d
:1019300024972000048242005403be004402be00eb
:101940005f0707000c86d1008d06e8000c00e00060
:10195000f4ff3c000002be000203be000800be000f
:101960000a01be005a0607000004be000205be00c0
:10197000de08900060c6b3000ff29700804f52005f
:10198000040032006000200062c4b300824f5200a5
:1019900002003a008f9a97006a804200810040005e
:1019a000f1b79f0001037800f30f530002003400e9
:1019b00037012000f7b79f0000c3b300a0779f0056
:1019c00030fb2f0000804700e0b79f000e01780039
:1019d00092b79f004b0037000800be000a01be000e
:1019e000080707000006be00ffb19700e88151001c
:1019f000f3b79f004240a9000c0034002d070700f8
:101a00000002be000203be000800be000a01be00c4
:101a1000a00707006022b80046782d00771924003f
:101a2000270707000004be000205be000007eb0008
:101a3000810020000802be000a03be00a4b79f0078
:101a4000b5b79f00c6b79f00d7b79f0001047800c5
:101a50000c01be000e003700a4002000050020008d
:101a6000a0fd2f000f0040003f0207005fa8970075
:101a7000efa897007fa997008fb1970006c3b30026
:101a8000864241000e02ea0005727d000001be00a0
:101a9000efb39700688543008005eb000e0055000a
:101aa000e00f5100e08f590007003c0088007800eb
:101ab0002fb49700bfb497004fb59700dfb59700dc
:101ac0000001eb00080037000804e9000e07e800f9
:101ad000e10f4400e0ff3a00f4ff37008201ea0022
:101ae00006c3b30086717a006102b8008201520019
:101af0000201e80002835000f8ff3b00e88141004a
:101b0000e3b79f007fb097000000e00007003400bb
:101b10006022b8006033b8000800be000a01be00b1
:101b2000e60507000000e000abff3c001fb7970090
:101b300034fb2f000f0242006fb1970004025100e6
:101b40008f999700e7804100819f9f000000eb0084
:101b500080815000800252003afb2f000f054500a3
:101b60008005eb006104b8000803450089834d003f
:101b7000060178000000e8006a457c0008c3b30055
:101b8000884f5500f2ff320006027800839f9f00c5
:101b90005e08900061c6b3000ff39700814f5300b9
:101ba0000300320061c4b300814f530002003a00c9
:101bb0008301e8000a0037001300200051c6b3007b
:101bc0008ff3970081cf53000500320087417800e2
:101bd00053c4b2008381fb008301e900cf19de000a
:101be00080814100858f510001003400850178001b
:101bf0000300e0002500350001c3b300858f5100cc
:101c000006003d00e4c27900e9c0400040c3b300d3
:101c100080cf520001003c00e9c050000300780072
:101c20008002eb0001003700060078000003e900a5
:101c3000030442000804e9008004eb00612eb800b0
:101c40000c0554000c06ea00ec437c008502e80019
:101c500081cf5300f4ff320093c3b30083cf500011
:101c600001003a00074de8000600e00006003d00d4
:101c70000401e9008001e8000f9897000000e800e7
:101c8000809f9f0001003700800178000ff29700cd
:101c90008400fb000f9a97000e00780006000700f2
:101ca0004f0778004f06be004f05be004f04be0030
:101cb0004f04b100000006001200fa00889fbe0029
:101cc0008a9fbe008c9fbe0000047800014578000a
:101cd0008205780083047800040678000900e0009b
:101ce00002003c0019002000eb9f200060c6b300fa
:101cf000804f55000e00320060c4b300804f550085
:101d00000b00320070c6b300804f55000300320054
:101d100070c4b300804f550085003a00e40f4600c0
:101d20008300350058089000800f560080003d0069
:101d30000c06e80060c6b300804f5500100032006a
:101d400060c4b300804f55000d00320008109000b1
:101d50000038a30004003a0058089000808f540017
:101d600001003d00590c9800580890000c005000ec
:101d7000500c980002003b000000eb00500c980053
:101d800018089000e80090000c00e00026003c00dd
:101d900002c3b300827078000000e800100c9800c5
:101da000d80890000100e00003003c00881090007b
:101db0000138a30005003200e8009000e2c2b30041
:101dc000827078000000e800100c9800580890001d
:101dd0008c00ea00810f500001003d000006ea007f
:101de0008c00ea00210c9800000646005c0c98006c
:101df000890f560001003400090678003c0c980059
:101e000018089000e8009000008040006161b9006f
:101e10008b007800c4fb0700580890000c065000a7
:101e20004c0c98009b0037008c8f540018003d002c
:101e3000008040006149b9008b007800bafb0700c0
:101e40001808900000804400100c98008904560087
:101e5000290c9800d80890000100e00003003c0025
:101e6000881090000138a30006003200e8009000be
:101e7000e2c2b30082707800380890000000e800e9
:101e8000300c980058089000400c980081003700f2
:101e90006162b900008040000401be008b00780040
:101ea00084bf9f0095bf9f009ffb0700180890000c
:101eb00000004600100c98008c845400d808900054
:101ec0000fba97000100e00003003c00881090006a
:101ed0000138a30005003200e8009000e2c2b30020
:101ee000827078000000e800100c980058089000fc
:101ef000808f54000100340080047800180890009e
:101f0000e8009000008040006149b90084804500ed
:101f100085fb07001808900009004000100c98008d
:101f2000580e900089045600290c9800590037007b
:101f300018089000e80090009b7078000000e8000e
:101f4000100c9800d80890000100e00003003c004d
:101f5000881090000138a30005003200e8009000ce
:101f6000e2c2b300827078000000e800100c980014
:101f7000580890000000e000100034008904e900d7
:101f8000808f54000100340080047800180890000d
:101f9000e8009000008040006149b9008b00e80033
:101fa00061fb07001808900009004000100c980021
:101fb0005808900089045000290c980018089000d7
:101fc000e8009000008040000a5878008006e80091
:101fd0000c00e00004003500b1c2b30001487800f5
:101fe0008d05780004003700d1c2b30001487800a5
:101ff0008d0578000c06ea000005eb000b003700a9
:10200000a20020008c007800748057003800070080
:102010006fb09700ffb0970001437800fe81570032
:1020200086717d00000678000a05e8000c00e000db
:10203000f3ff3c000a00e00003003a008d05780041
:1020400000c3b300805d78000000eb00070037009c
:102050000a05e9007e8357008a00430006c3b300e7
:102060009140430001717a000000e8006159b80016
:102070006102b800820042000a00e000f4ff3c0068
:102080001808900068019000000041000080500096
:10209000300c98000810900074006000f00f5000a1
:1020a0000e003a00980890007800900000804000f0
:1020b000a808900001004000b8089000010040000e
:1020c000c808900001004000f8089000810f5000ff
:1020d00002003d0000805000000c98004f06be003a
:1020e0004f05be004f04be000080fa00000006004d
:1020f0008002780001037800110009000203d80073
:1021000080017800830a78000299b9000201530027
:10211000920298000500780000000600801221005d
:10212000b2003700881f780008a020001804e000e3
:1021300003003a00f9ff070020c0b300004c78000c
:102140004f04780000000600889fbe00000478005d
:10215000080078004900070080047800000420008f
:10216000180060000200320028009000d70007002d
:102170000000eb0020049800384090000004e000cc
:10218000050035000000fb00f2f807000000e00049
:10219000010032008084eb00181090000000e00085
:1021a0000800320022f907000000e00001003200c0
:1021b0008084eb0018109000c40007000000eb00c2
:1021c0001014980000082000180060000f00320072
:1021d000019520000000eb00d10f140005003a002b
:1021e0000000400021952000008040000008eb0026
:1021f000030037000000e800e80f5000f6ff3a0047
:1022000008007800b10007000e003700000c7800cd
:1022100000c0eb003044980060022000080040003d
:10222000200498004004980050049800400c980046
:1022300060049800500c98007004980076004400e8
:10224000000c9800090078004f04be000000060052
:10225000889fbe0028962000f004540048007800b3
:102260000000e00001003200b7ff0700890f5400b2
:10227000faff3a004f04be0000000600889fbe002f
:102280008a1f7800000478000800e0000d003a0082
:1022900008952000700544008004eb005800780089
:1022a0000000e00004003200f4ff07000000e0003e
:1022b00001003d008084eb008a0f5400f7ff3a00d4
:1022c0002500370000002200180060008004eb00a9
:1022d00021003200a80490000f00370009015100ce
:1022e000384090000000fb0089007800a2f8070049
:1022f0000000e00007003c00280090004004980027
:1023000060049800500c98001890a0008084eb00a6
:10231000110037008084440048019000828f5400ef
:10232000eeff3900280090004004980098007800e3
:1023300002c020000281600001003a0038009000d5
:1023400001e8a30002003200600498000100370099
:10235000500c98008004eb00090078004f057800cd
:102360004f04be0000000600881f78008a9fbe0050
:102370008c9fbe00000478000205be000406be006b
:102380000401be000a00be002b040700008cbe0042
:102390000c01be00540507000005550081855d0055
:1023a0002a0498003b049800080078004f06be00fd
:1023b0004f05be004f047800000006000200370001
:1023c0000304e000060032000001780002007800fb
:1023d000b041780081cf5100f9ff3a000100370089
:1023e0000001eb0002007800000006000100200060
:1023f0000100e00008003200010080000100e00060
:10240000050032008100e900010088008180400061
:102410000200800000b1780000000600889fbe0026
:1024200000047800e68440001900d0004500de007a
:10243000f27f2000820f500010003a00000ceb00e9
:10244000990478006f816400200020001b003a008e
:10245000210190000200e00018003a0011019000f4
:102460000200e00015003a00100020001100e0001a
:102470001200320020002000100037000000e000b1
:1024800004003a00010078003a0107000000e00073
:1024900008003c00f20028001901610001fe230041
:1024a000810c710021c02f00010c40000080eb0066
:1024b00002003700000ceb000000eb004f04be00f0
:1024c0000000060001087800000006000000e0009f
:1024d000320032004002be00e50f5200e08f5a0089
:1024e0002e0036000408a3002c003a00e14f8000c3
:1024f0000100e00002003200810f500004003100b2
:1025000021009800e04f8800170037008200780013
:10251000210190000200e00002003200800f510013
:10252000faff39001103be0086814000830f50007e
:102530001a003900808f510004003a0084184300cb
:1025400085904b0001007800070037000200e00092
:102550000300320004024000840f51000f003900d4
:1025600022009800a0009800a00090000100e00068
:102570000a00320010014000828f500007003a002c
:10258000a29f20000009eb001001be00311841009d
:1025900021904900a1009000210098000000060051
:1025a000ea874700889fbe008a9fbe008c9fbe00be
:1025b0008e1f7800000678000204be000405be00ed
:1025c000010778000400be00c7040700d0b79f00d1
:1025d000e1b79f00e00f5000e08f5800520032003a
:1025e000e00f5400e08f5c0050003200fcb79f0009
:1025f0000006be00ce0090006e009000808f50005c
:10260000040039000e007800eef907000000e00039
:1026100033003500004020001e0060000c00320036
:102620000c01be00a10020007fb09700b900070098
:10263000000278000400e00008003200ffb19700bb
:10264000618511000a054200cfd5de000400370085
:102650000c05be000002eb00010037000c05be00b7
:102660004e0090006e01900000015100cf91de00fd
:102670008a0f51008b8f5900020031000205be0005
:102680000002eb000a01be00ffb0970084bf9f006c
:10269000a5f907000a0656008b865e004e009000e2
:1026a0000a004000400798000fba97000400e000bd
:1026b000040032000e007800f0fe07000000e00089
:1026c00007003a00e00f5600e08f5e000400320081
:1026d0007fb097000a004000f0b79f00c5ff3700a9
:1026e000008020001e006000020032000e00780012
:1026f000e2fe070000c020001e0060000200320061
:10270000ce009000610798005fb19700efb197008d
:102710000c0051008d8059000801be005f040700c5
:102720000005be00010037006055b8000a00be0079
:102730004f0778004f06be004f05be004f04be0095
:10274000af00b10000000600889fbe008a9fbe0057
:102750000004be00d14f80000100e0000200320002
:10276000010078000f003700e14f8000c09f20007b
:1027700005003700b10f5400a18f5c002b0036001c
:1027800064804000a10090000100e000f9ff3a00e1
:1027900012003700b20f5400a28f5c0023003600f5
:1027a00064004100100178000200e000f9ff3a00e7
:1027b00011017800e14f8000c09f20000500370024
:1027c000b10f5400a18f5c001800360064804000f7
:1027d000a1009000828f5000f9ff3a00ba4f8000ac
:1027e000cb4f8000880f5500898f5d0001003100bc
:1027f0000805be000a00be00aa0007000000e000b5
:1028000006003a00880f5500898f5d0006003200ef
:102810008b05d1000a85d300f2ff37000a98be006d
:102820002aff0700cbff37000000eb004f05be007a
:102830004f04be0000000600889fbe000002be00dc
:1028400065004000e0804800000378000600a10019
:1028500081017800060178000204be008000eb00d0
:10286000840f5400858f5c0027003600e50f54006c
:10287000e08f5c0002003e0068002000090020009c
:102880000800be00b0ff07008000eb000000e00081
:102890001d00320090007800a4ff2f00f5ff2f00ec
:1028a00031014200a1814a00880f5100898f5900ef
:1028b00003003100a10290000508780008003700ed
:1028c0000881400002087800a101900023019800cf
:1028d000100178003119140021911c008888be0075
:1028e000100178000000eb000200e000040032005c
:1028f000a20190000300e0000100320064004100ea
:10290000d04f8800e4804000010078004f04be00f2
:1029100000000600889fbe008a9fbe000202be0023
:102920008001eb00060037008301e80066417c006f
:10293000814f51000b00320061025200e0825a00c8
:102940006103b800611cb8000805430089854b008d
:10295000e00f5200e08f5a00f3ff3a000000eb0056
:10296000010037000a0078004f05be004f04be008a
:1029700000000600e6004000110178000500280074
:10298000850261006f016100820878000200320058
:102990001200200011003700a0019000120020005a
:1029a0000300e0000d003a00900190000300e000f9
:1029b0000a003a001000e00008003a003600370034
:1029c000640340009608780080017800530b78007b
:1029d0009009780004087800700151001102780015
:1029e0000400e000f6ff32001300370064024000ec
:1029f000140378004f33de008381410083087300a5
:102a000080017800d3037800cf3bde001403780008
:102a100006034300068a7300130278000402420092
:102a2000100378004f33de008609720090017800b1
:102a3000038841000201e90091017800ef8f510005
:102a4000eaff360010003700800178005303780059
:102a50004f33dd001002d10004087300640240000f
:102a600094037800cf3bdd001303d1008689730007
:102a7000110378004f33dd009401d100030a730085
:102a80009108d1000201e80091017800ff8f510008
:102a9000edff3e00ef88610091887200020078002f
:102aa000000006000001be008000eb000200e00014
:102ab0000600340002007800e6f607008000780087
:102ac000e18f400001003a008000eb000100780037
:102ad00000000600fc874700889fbe008a9fbe005a
:102ae0008c9fbe008e1f78000006780080c5b30062
:102af00080cf50000a0032007740400080cf500065
:102b00000a0032006940400080cf50000b003200c4
:102b1000b09c200080bf9f00ae0020000a0037005c
:102b2000a29b200082bf9f0006003700b39c2000bc
:102b300083bf9f008e00200003003700b49c20005c
:102b400084bf9f000e0120003c02be002c03be008b
:102b50000605be000404be0040c6b30080cf50008e
:102b6000030032006540400080cf50000b003a0067
:102b7000e00f5200e08f5a00e00f5b00e08f5b0037
:102b800006003d006000b8006011b8000404500069
:102b9000858458000605590087855900e80f5700bd
:102ba0000400320040002000f00f570038003a00c7
:102bb0000100370030002000e00f5400e08f5c007f
:102bc000e00f5d00e08f5d0004003a00dc0890003b
:102bd0008d0120000100e000060032008e00e900b7
:102be000888060008fba9700e5c07800f1ef9f0001
:102bf0007d012000800078008100e900050033009d
:102c00008b05d1000a85d3008984d3000884d300c2
:102c1000f9ff3700089ebe000a96be00120037007a
:102c20008d06e9008e00e900848060000fb99700ee
:102c3000e2c1780082fd2f000f01410003f17e0008
:102c4000800078008100e900050033008783d1000f
:102c50000683d3008582d3000482d300f9ff3700b6
:102c6000049ebe000696be003c02be002c03be00c1
:102c7000e00f5200e08f5a00e00f5b00e08f5b0036
:102c80008b0034000d00e000e5ff3c0088003700b9
:102c90002c60900081c6b300814f50000b003200c1
:102ca00006003c000004e00008003200e6c05000ce
:102cb000814f50004e003a0004003700c1c6b300f7
:102cc000814f50004a003a00210037000800e00020
:102cd00004003a005c0890008d0120000000e00034
:102ce00006003200110009000e84d8000fb99700c9
:102cf000e2c07800f1ef9f007d0120001100090083
:102d00000e84d8000a003700110009000e04d80014
:102d10008d06e9000e81b900020454008fb89700b7
:102d200061417c0081fd2f008f80400082f07e0099
:102d3000000478000800e000020032000d00e0000e
:102d4000f1ff3c00cfc4de00614db9002500370023
:102d5000e00f5400e08f5c0004003a005c08900033
:102d60008d0120000000e000070032006171b90011
:102d70000800be00d90207008fb99700e341780030
:102d8000f3ef9f007d0120006171b9000800be00d3
:102d9000c20207000b0037006171b9000800be00d5
:102da000a50107008d06e90000f1b90002045400f6
:102db0000fba9700e4427c0084fd2f000f0242000e
:102dc00005f27e000004be00e00f5000e08f5800c6
:102dd000020032000d00e000efff3c004fcdde00ae
:102de0008a057800089ebe000a96be0030003700b3
:102df000e00f5400e08f5c00e00f5d00e08f5d00ad
:102e000004003a005c0890008d0120000000e00002
:102e1000090032006172b900612bb9000800be00e0
:102e20000a01be00560307000fba970064427800fb
:102e3000f4ef9f007d0120006172b900612bb900a1
:102e40000800be000a01be00460307000d0037005f
:102e50006172b900612bb9000800be000a01be0012
:102e60004b0307008d06e90000f2b900040454008a
:102e70008fba970065427c0085fd2f008f8242004b
:102e800084f27e00009ebe000296be003c04be009e
:102e90002c05be00e00f5400e08f5c00e00f5d00e9
:102ea000e08f5d00020034000d00e000e8ff3c0010
:102eb000e80f570010003a000c1090000038a300f3
:102ec0000d003200f78f560006003e0085fd2f00f2
:102ed0008f824200e5c07e0000c3b30080cf500067
:102ee000050032008d06e90002c3b30081fd2f000a
:102ef0008f80400082f07e00f8801600110e98004e
:102f00006c0090006109b90084fd2f000f0242009f
:102f10008d00420084f707001c089000dc08900038
:102f2000810f500006003d0000805000000e980008
:102f30000c1090000040a100001698000f00370010
:102f40000100e0000d003d008c109000f480600056
:102f5000f08f500009003a007c099000fc009000be
:102f6000810051000c0990008280500000805000c8
:102f70004240a90001003400000e98004f0778007d
:102f80004f06be004f05be004f04be00cf01b1008a
:102f9000000006000400fa00889fbe008a9fbe0061
:102fa0008c1f78000004780001067800f80d90006e
:102fb00078009000808555000808900080855500b5
:102fc00018089000808555002808900080855500dd
:102fd000380890008085550048089000808555008d
:102fe0000002220090bf9f0000032300a0bf9f00ab
:102ff000081090000028a30015003a000b00e00024
:10300000130034000b0578008a047800e20f5500a5
:1030100001003600290020006149b90048029000f3
:10302000ee80570058009000040001005004980002
:103030000000e0008f0032006808900009004000a6
:10304000600c9800090555004240a900eeff3c00c5
:10305000780090000000e0000d0034006101b9002c
:10306000480290008c007800580090000400010095
:10307000500498008080eb000000e0007e003200e9
:10308000e80890007800900000804000600c9800f4
:10309000880c90000900e000110034000905780058
:1030a000e28f5400010036002a0020006151b9006f
:1030b00048029000ec805700580090000400010086
:1030c000500498000000e0006a0032006808900098
:1030d0000a004000600c98008a845400edff37001d
:1030e000180890000000e0000d0034006101b900f4
:1030f00048029000e8009000580090000400010091
:10310000500498008080eb000000e0005a0032007c
:10311000e80890001808900000804000600c9800bb
:10312000a80c90000900e0001100340009057800a7
:10313000e28f5400010036002a0020006151b900de
:1031400048029000ec8057005800900004000100f5
:10315000500498000000e00046003200680890002b
:103160000a004000600c98008a845400edff37008c
:10317000380890000000e0000f0034006101b90041
:1031800018089000e80090008080400048029000fd
:103190005800900004000100500498008080eb006b
:1031a0000000e00034003200e80890003808900089
:1031b00000804000600c9800c80c90000900e000fe
:1031c0001100340009057800e28f54000100360038
:1031d0002a0020006151b90048029000ec8057009d
:1031e0005800900004000100500498000000e00026
:1031f00020003200680890000a004000600c98002f
:103200008a845400edff3700081090008000eb0026
:103210000028a300180032000b00e0001600340064
:103220008b04780009057800e28f54000100360015
:103230002a0020006151b90048029000ee8057003a
:103240005800900004000100500498000000e000c5
:1032500008003200680890000a004000600c9800e6
:103260008a8454004240a900eeff3c008000eb003d
:10327000010037008080eb00010078004f067800e5
:103280004f05be004f04be000080fa00000006009b
:1032900000c0da000000060000c0da0000000600ee
:1032a00000c0da00000006008f1fd10013030700e2
:1032b0008f87e9000000e00000000600809feb001f
:1032c0000e0307008f87e9000000e0000000060001
:1032d0002800fa00889fbe008a9fbe008c9fbe0017
:1032e00003866b008f0007006400e1004400320099
:1032f0006408e1004a0032006100e100460032004b
:103300006108e10049003200ec0647006000b800a7
:103310003d02be003d03be00f48657006011b800b8
:103320003d04be003d05be007d0320000b003700bc
:103330000000a0008d06e9001300320004024200e4
:1033400085824a0006034b0087834b000000400043
:10335000818048000201490083814900080252002f
:1033600089825a000a035b008b835b00f0ff3b00fd
:103370000802420089824a000a034b008b834b00fb
:103380008d06e900edff3a008482720086827200a9
:10339000f707b2008782720001003200150020009a
:1033a0001e0490003e0b900006035400e63fb00060
:1033b0000368a300070032000000a7000500a0007a
:1033c0008301d1000281d3008180d3000080d3002b
:1033d0000603e8008301d1000281d3008180d3007d
:1033e0000080d3000002eb000482d200210007001d
:1033f00003f0a1000cf0a70003f0a0005d0037006f
:10340000640247006408e100570032003400be0047
:103410003401be00f6ff37006108e10052003200bf
:103420006011b8006000b800f1ff370003ff27000b
:1034300002002000fbff3700839f68000100e000ce
:1034400002003d0060001000e08018000300e00072
:1034500002003d0060011100e08119000f0107002a
:103460004f00e00002003b0060001000e080180008
:103470000000060018002000570020000804530038
:103480000d003d000600200097fc2f000740e100e2
:103490001e00340084827200610260008301d1004a
:1034a0000281d3008180d3000080d3000804e800ab
:1034b000f8ff3a0047002000610460000504740032
:1034c000040464000d00320061004000e080480008
:1034d00060014900e081490003b8a50007003200ff
:1034e0000603e8006538e10004003a008301d100da
:1034f0000281d3008180d3000080d300f87f2000b8
:103500000830e10003003500080378006000b800cf
:103510006011b8004433dd00f300b2008301730092
:1035200000000600680447000294be000094be003c
:10353000fc0447008694be008494be000900780015
:10354000b702070008007800b5020700990078006c
:10355000814f70000b003b000800be009002070086
:103560004f00b10003003700f3ff2700f2ff2f00e8
:103570006110b9004f06be004f05be004f04be00eb
:103580000080fa00000006008103780053f5070070
:103590000001be006000b8000478a30013003a00e8
:1035a0006220e10015003e000d0039008301d100ca
:1035b0000281d3008180d3008301d1000281d30036
:1035c0008180d3008301d1000281d3008180d300a8
:1035d0000538b000c42add00f300b2008381720018
:1035e00007f0a70003f0a00000000600f3ff27008b
:1035f000f2ff2f006110b900fbff370003ff270027
:10360000f7ff37001400fa00889fbe008a9fbe00b3
:103610008c9fbe000004be000205be00680047008b
:103620000a90be000890be007d0207000070a7004f
:103630000bf0a100304320009e02900080825200d7
:10364000b0fe2f000028e10011003d00b0fc2f006b
:103650000028e100150034001e0990008e0890003b
:103660007e0090000501b0000201d1008180d300ee
:103670000080d3008502e800fbff3a000b00e00069
:10368000bcff3b0060001000e0801800b9ff37006d
:10369000f0ff2f00f1ff27000b00e000b5ff3b001b
:1036a0000100280000002000b2ff37006000b800d1
:1036b000b0ff37004f89de00820178007f023700bb
:1036c0002800fa00889fbe008a9fbe008c9fbe0023
:1036d00003866b0093ff07000028a30064003a00f4
:1036e0000128a30067003a000008a30062003a0026
:1036f0000108a30065003a001e009000be0890007b
:1037000081064000ed3fb100f4805700ee019000cb
:10371000111ab8008e099000311bb8009e09900064
:10372000311cb800511db800f48557004600070051
:10373000fe0190003a0007008b85e8003e0007007c
:103740008e09900040000700ee0190003400070051
:103750008b85e800380007008e09900040000700c4
:103760009e0990001b18b800890440000a85480093
:10377000fe019000340007008b85e8003800070048
:10378000ee019000300007008e0990001b18b80071
:10379000890440000a8548000a98a30008003a00fe
:1037a0000402420085824a0006034b0087834b00d7
:1037b00008044c0089844c000a054d008d06e90080
:1037c00084827200850273004c3add00850272002b
:1037d0000100320015002000443ade001400b2005f
:1037e0004538de00cb45dd000b007000c540de0033
:1037f000cb4ddd008b8070004549de00cb55dd00f0
:103800000b017100c551de000d03780019ff0700a0
:1038100003f0a1000cf0a70003f0a00055ff370053
:103820001b18b8008502400006834800e0834b0067
:1038300060044c00070037001b18b8000603400066
:1038400087834800faff37001b18b8008703400041
:1038500008844800e0844c0060054d00000006002c
:103860001b18b8000804400089844800faff37009c
:103870000108a3003cff3a005800be005801be00fa
:10388000e3ff37000008a30037ff3a00090478007f
:10389000f9ff370007f0a2001b0137006022b800d3
:1038a000060220000000d0008180d2000482d200f5
:1038b0008582d2000000a0000202520083825a00da
:1038c000030031000202420083824a000000a1008e
:1038d0000603e900f3ff3a0000000600efff0700cf
:1038e0000400be0000000600020ab900001bb90077
:1038f0000200b80081004200810043000000060081
:10390000889fbe008a9fbe0030044200b0844a00f7
:1039100030054b0090854b006000b1000898be0058
:103920000a90be000440e10005c8e10006d0e100b5
:1039300007d8e10002003100680040001008e800ec
:103940004f05be004f04be0000000600889fbe0069
:103950008a9fbe003004be002005be00041854003b
:1039600005985c0006185d0007985d0011002000b6
:103970000440e10005c8e10006d0e10007d8e100fd
:10398000010039008000eb00108810004f05be00d8
:103990004f04be00000006001200fa00889fbe001f
:1039a0008a9fbe008c9fbe00e0b79f00f1b79f00ca
:1039b00082bf9f0093bf9f000605be000404be00a7
:1039c0000000eb00d0b79f00c0b79f00b0b79f00ca
:1039d000a0b79f0090b79f000006eb005fb1970073
:1039e000cfb09700820141003fb097000200e00095
:1039f00004003d00370007007e805700c0ff07002d
:103a000003003700330007007e805700cfff070018
:103a1000dfb697000d00e0000c0035006fb2970094
:103a2000ffb297000fbb97009fbb970010002000cc
:103a3000010020006011b800000272008182720053
:103a400002037300838373001b0007000c06e80069
:103a500001042000810f5600e0ff3a000d00e00055
:103a600004003d000802be000a03be007e8057002d
:103a7000a3ff07005fa897000000e00005003a00e0
:103a80001fb29700afb297003fb39700cfb3970034
:103a9000090007006fb09700ffb097000fb99700bb
:103aa0009fb997004f06be004f05be004f04be00f1
:103ab0000080fa0000000600010007000000060078
:103ac000a4b79f00b5b79f00c6b79f00d7b79f00a8
:103ad000000006004f09de0082817100b3b79f002d
:103ae0004f01de008180400082807000a1b79f00fe
:103af0008fb097004f09de00000040000200700008
:103b000090b79f007fa897004f01de0081804000a2
:103b10008280700081b79f000d0007004f3ade00e1
:103b20000000400004007000f0af9f000800070094
:103b30000402420085824a0006034b0087834b0043
:103b4000dfff07000802be000a03be0000000600f7
:103b50002fb29700bfb297004fb39700dfb3970023
:103b600000000600881f780018002000881f7800d9
:103b700089ff07008f87e9004f04780000000600e6
:103b8000801feb0084ff07008f87e900000006001c
:103b9000889fbe008a9fbe00e00f5000e08f580053
:103ba000e00f5900e08f59000c003d006044b80060
:103bb0006055b8000000540081805c0002015d0087
:103bc00083815d00180020001500070008003d00fb
:103bd000180007000004eb00050037000004eb00ac
:103be0000f00070002003d0012000700180020002f
:103bf000dcff07000800e000060032006022b80089
:103c00006033b8000000520081805a0002015b005e
:103c100083815b004f05be004f04be00000006001c
:103c2000e00f5200e08f5a00e00f5b00e08f5b0076
:103c3000000006006044b8006055b800040254005b
:103c400085825c0006035d0087835d00000006003e
:103c5000889fbe008a9fbe008c1f7800e00f500036
:103c6000e08f5800e00f5900e08f59000d003d0033
:103c70006044b8006055b8000000540081805c00ca
:103c800002015d0083815d001c0020000820e1002e
:103c900009a8e1000ab0e1000bb8e1000d003d0009
:103ca000080037000006eb00e00f5200e08f5a00da
:103cb000e00f5b00e08f5b0006003d006044b80051
:103cc0006055b8000402540085825c0006035d0064
:103cd00087835d00aaff07000c00e00006003200a9
:103ce0006022b8006033b8000000520081805a00a2
:103cf00002015b0083815b004f0678004f05be0028
:103d00004f04be00000006002800fa00889fbe0095
:103d10008a9fbe008c9fbe000706780087866900d8
:103d20000c003b00030478008704780008f0a10031
:103d300009f0a100840f5000858f5800860f5900ac
:103d4000890f5c00030033000cf0a20001003a0070
:103d50000cf0a100f3fd07006400e1005f003200f9
:103d6000780147006408e100610032006c014700ff
:103d7000748557003200be001201be003a04be0036
:103d80001a05be001e039000be0a90008503530072
:103d900006003d000004fd008104fd000205fd0059
:103da0008305fd008703ea00050378000df8a300f2
:103db0000400320060041400e0841c0060051d0053
:103dc000e0851d006022b8007d0320000d38e10071
:103dd0008006eb000b0039004433dd00f300b20035
:103de0008301730039003700848272000d0278006d
:103df000e10664008b85d1000a85d3008984d30055
:103e00000884d3008703e900f7ff3b000800400067
:103e1000898048000a0149008b81490004003b0069
:103e200060001000e080180060011900e0811900b6
:103e30000358a300090032008d8272008482720050
:103e4000610260008301d1000281d3008180d30030
:103e50000080d3000603e8001b0037000348a300de
:103e600017003a000600e000170034000603e900de
:103e70000d00a300000048008180480002014900b5
:103e8000838149000348a3000f003a000600e000c8
:103e9000090034000603e90000004000818048006a
:103ea000020149008381490001003a000003eb0050
:103eb0000348a300f5ff32006022b800020037007b
:103ec00084827200618266006afd070003f0a1002f
:103ed0000cf0a70003f0a000a6fd37006401470026
:103ee0006408e10002003a000df8a3009efd3a00cc
:103ef0003200be001201be009efd3700889fbe004a
:103f00008a9fbe008c9fbe000404be000605be0052
:103f1000809fbe00829fbe002f000700040678002d
:103f20000800be000a01be002b00070084067800ce
:103f30004f03be004f02be008d4f76007fb097004a
:103f400013003300f0ff2f008b8f6b0006003b0047
:103f50000d0666000c00a7000a00370007f0a60057
:103f6000100020000a003700880f5200898f5a0085
:103f70008a0f5b008b8f5b0003003900100020006c
:103f800001003e000000200007f0a7000000ea004a
:103f90004f06be004f05be004f04be0000000600e5
:103fa000e48240001078a300070032006402400061
:103fb0001178a3003400be001401be0004003200da
:103fc0000330a700000006003500be001501be004a
:103fd0000330a0000000060005ff270005826100f5
:103fe000070032000428e10001003200240005002f
:103ff0000600070001003a0044000500040805001f
:1040000002000700f9ff3a00140005006f8261000a
:1040100081027000850271008502720000000600b6
:10402000800078005002be005003be004439de001c
:10403000f700b200f37f20000301610009003200a5
:104040000218e10016003a00850172008301730036
:10405000838173000008200015003a004000200012
:1040600013003700850172008301730083817300a0
:1040700005003a0004a8be0006a8be0010002000fb
:104080000b0037000201e9000402420085824a0069
:1040900006034b0087834b000748a300f9ff32005b
:1040a0000740a00004a8be0006a8be002000200013
:1040b000800098009200980000000600881f780099
:1040c000030478000300e00007003d0060001000da
:1040d000e080180060011900e081190002003b0037
:1040e00001f02d00030037000400070008f0a700ce
:1040f00003f0a0004f04780000000600889fbe0077
:1041000000827000040271000482710024003200f9
:1041100036432000c50020008383cf000a00390009
:104120000541b1008283cf00070039000541b1008d
:104130008183cf00040039000541b1008083cf00a6
:10414000010039000541b10085c353006022b80069
:10415000120032000a003b0084827200610260009b
:104160008301d1000281d3008180d3000080d3007d
:104170000603e8008743e800f7ff3a00070037002e
:10418000000040008180480002014900838149000d
:104190000603e9008743e900f9ff3a00b5fc070090
:0841a0004f04be000000060000
:020000040000fa
:1041a8003130000030200000416d00006f730000c6
:1041b8007472000061730000207000006f720000cc
:1041c8002073000065670000756e0000646f0000d2
:1041d800210000004c6100007374000020530000af
:1041e800616d0000706c0000653a00002025000039
:1041f800750a0000566100006c750000652000001b
:10420800666900006c740000657200006564000057
:0c4218003a200000256600000a000000ab
:020000040000fa
:104224000000fa003003200040118800000028003c
:104234000011880000402000101188000080fa005e
:10424400000006000000fa00203a800000c0a1002f
:1042540000d0a10000e0a100203a8800203a8000ac
:104264000080a1000090a10000a0a100203a8800d5
:104274000080fa00000006000000fa00e024ef00cd
:10428400c002a9000000280010278800c842a80026
:10429400c8e2a900c9e2a8000080fa0000000600f4
:1042a4000000fa0000032800200888000021ef0025
:1042b40000272000100888008460a9009460a800ea
:1042c4000080fa00000006000000fa000047200009
:1042d400001a88004223ef00f0ff2100201a880012
:1042e400001a80000040a0000050a1000060a0005f
:1042f4000070a100001a88005023ef0090002000f5
:10430400401a880085a0a90095a0a90041e3a8004f
:104314000080fa00000006003400f800881f7800ce
:1043240008002000a80188004f0478000000fa006b
:104334008460a9000080fa003400f90000400600ff
:104344003600f800809fbe00829fbe00849fbe009e
:10435400869fbe00889fbe003400f8000000200045
:10436400a00188000000fa006046800071468000c9
:104374004046880051468800001880009046880016
:10438400b0468000c14680000001be00000020004d
:1043940001f82300cff007000002be004046800071
:1043a400514680000001be000400be0067f1070012
:1043b4000004be00904680008000eb0023f107005b
:1043c4000002be00b0468000c14680000001be006d
:1043d4000400be005df107000001be000800be003d
:1043e400bdf0070060468800714688008046800062
:1043f4000000e8008046880085a0a9000080fa003b
:104404003400f9004f04be004f03be004f02be004b
:104414004f01be004f00be003600f9000040060008
:104424000000fa0087ff070093ff07009cff0700c6
:10443400a5ff07007aff0700400d2a00bbf1070023
:10444400010037000000000080468000e90f5000a2
:10445400fcff3400d028ef006046800071468000e5
:1044640092468000809fbe00821f7800e00e2a00e2
:10447400801f7800acf20700e8875700f2ff37008e
:020000040000fa
:10448400d4080000060000000200000001009a00a9
:1044940099993e0000080000d400000000000000cc
:1044a400da0800008800000002000000010000009b
:1044b40000000900010900000900090000090000ca
:1044c40009f00800000000000000000000000000e7
:1044d40000000000000000000000000000000000d8
:1044e4000002080001012800092909002809280000
:1044f400092809002809180009000000000000002c
:1045040000000000000000000000000000000000a7
:1045140000000000000002000802020050095100df
:1045240009500900500950000950090040090000d1
:104534000000000000000000000000000000000077
:10454400000000000000000000000000da08020083
:10455400092a09000000000000000000000000001b
:1045640000000000dc0900001a0000000200000046
:10457400686a6c00747a4c000000010000020000bc
:104584000400080000100000000020002b2d230070
:104594003000000062090000580000000200000022
:1045a4006e616e00004e41004e0069006e660000b0
:1045b400494e4600000000000000000000244000b6
:1045c400000000000000000059400000000000004e
:1045d4000088c3004000000000008400d797410019
:1045e4000080e0003779c300414317006e05b50031
:1045f400b5b8930046f5f9003fe903004f384d0084
:10460400321d3000f9487700825a3c00bf737f00a6
:10461400dd4f150075000000fe09000002000000d7
:104624000200000030000000000a00000200000048
:1046340000000000f6090000040000000200000071
:104644000600000000000000fa0900000400000059
:1046540000000000ba09000022000000020000006f
:1046640030313200333435003637380039414200b6
:1046740043444500460030003132330034353600bf
:104684003738390061626300646566000000000029
:10469400020a000002000000000000000000000008
:020000040000fa
:0200000401f009
:04000000ffff0000fe
:020000040000fa
:0200000401f009
:04000800ffff0000f6
:020000040000fa
:0200000401f009
:04000c00f9ff0000f8
:020000040000fa
:0200000401f009
:0400100033ff0000ba
:020000040000fa
:0200000401f009
:040014005fff00008a
:020000040000fa
:0200000401f009
:04001800ffff0000e6
:020000040000fa
:0200000401f009
:04001c00fdff0000e4
:00000001FF
