:020000040000fa
:080000000002040000000000f2
:020000040000fa
:100008009a0200009a0200009a0200009a02000078
:100018009a0200009a0200009a0200009a02000068
:100028009a0200009a0200009a02000006050000e9
:100038009a0200009a0200009a0200009a02000048
:100048009a0200009a0200009a0200009a02000038
:100058009a0200009a0200009a0200009a02000028
:100068009a0200009a0200009a0200009a02000018
:100078009a0200009a0200009a0200009a02000008
:100088009a0200009a0200009a0200009a020000f8
:100098009a0200009a0200009a0200009a020000e8
:1000a8009a0200009a0200009a0200009a020000d8
:1000b8009a0200009a0200009a0200009a020000c8
:1000c8009a0200009a0200009a0200009a020000b8
:1000d8009a0200009a0200009a0200009a020000a8
:1000e8009a0200009a0200009a0200009a02000098
:1000f8009a0200009a0200009a0200009a02000088
:100108009a0200009a0200009a0200009a02000077
:100118009a0200009a0200009a0200009a02000067
:100128009a0200009a0200009a0200009a02000057
:100138009a0200009a0200009a0200009a02000047
:100148009a0200009a0200009a0200009a02000037
:100158009a0200009a0200009a0200009a02000027
:100168009a0200009a0200009a0200009a02000017
:100178009a0200009a0200009a0200009a02000007
:100188009a0200009a0200009a0200009a020000f7
:100198009a0200009a0200009a0200009a020000e7
:1001a8009a0200009a0200009a0200009a020000d7
:1001b8009a0200009a0200009a0200009a020000c7
:1001c8009a0200009a0200009a0200009a020000b7
:1001d8009a0200009a0200009a0200009a020000a7
:1001e8009a0200009a0200009a0200009a02000097
:0801f8009a0200009a020000c7
:020000040000fa
:100208009a0200009a0200009a0200009a02000076
:100218009a0200009a0200009a0200009a02000066
:100228009a0200009a0200009a02000006050000e7
:100238009a0200009a0200009a0200009a02000046
:100248009a0200009a0200009a0200009a02000036
:100258009a0200009a0200009a0200009a02000026
:100268009a0200009a0200009a0200009a02000016
:100278009a0200009a0200009a0200009a02000006
:100288009a0200009a0200009a0200009a020000f6
:100298009a0200009a0200009a0200009a020000e6
:1002a8009a0200009a0200009a0200009a020000d6
:1002b8009a0200009a0200009a0200009a020000c6
:1002c8009a0200009a0200009a0200009a020000b6
:1002d8009a0200009a0200009a0200009a020000a6
:1002e8009a0200009a0200009a0200009a02000096
:1002f8009a0200009a0200009a0200009a02000086
:100308009a0200009a0200009a0200009a02000075
:100318009a0200009a0200009a0200009a02000065
:100328009a0200009a0200009a0200009a02000055
:100338009a0200009a0200009a0200009a02000045
:100348009a0200009a0200009a0200009a02000035
:100358009a0200009a0200009a0200009a02000025
:100368009a0200009a0200009a0200009a02000015
:100378009a0200009a0200009a0200009a02000005
:100388009a0200009a0200009a0200009a020000f5
:100398009a0200009a0200009a0200009a020000e5
:1003a8009a0200009a0200009a0200009a020000d5
:1003b8009a0200009a0200009a0200009a020000c5
:1003c8009a0200009a0200009a0200009a020000b5
:1003d8009a0200009a0200009a0200009a020000a5
:1003e8009a0200009a0200009a0200009a02000095
:0803f8009a0200009a020000c5
:020000040000fa
:100400004f8020000eff20000e0188000000000039
:10041000000020000000e000020032000001200087
:10042000200288000c00070000542000010020007a
:1004300011000700000020000000e0000200320070
:10044000000002000000000034050200000000006f
:100450000040da000000fe004440a9000020200017
:100460000000e0000300320000002000a00188002e
:100470004440a80000000600910188008000780038
:100480000000eb0015003700e280400032a0b4000d
:100490009101ba00e280400032a0b4009102ba009b
:1004a000e280400032a0b4000002eb00472bde00e7
:1004b000f507b200602ce10004003a000059eb009f
:1004c0008301e900fdff3e00040037006128e100e0
:1004d000010032000082eb00040007001101ba00a5
:1004e0000200e000e8ff3a00000006003159ba00bf
:1004f0008301e9000c0032002159ba008301e900b0
:10050000080032000400e00003003a00e2804000ee
:1005100032a0b400f5ff370011d9ba008301e90019
:10052000faff3a008100e800e180400032a0b40008
:0c053000000006000040da000000fe00a1
:020000040000fa
:10053c00800000008300000085000000880000009f
:10054c008a0000008d0000008f0000009200000067
:10055c009400000096000000990000009b00000031
:10056c009e000000a0000000a2000000a5000000fa
:10057c00a7000000a9000000ac000000ae000000c5
:10058c00b0000000b2000000b5000000b700000091
:10059c00b9000000bb000000bd000000bf0000005f
:1005ac00c1000000c3000000c5000000c70000002f
:1005bc00c8000000ca000000cc000000ce00000003
:1005cc00cf000000d1000000d2000000d4000000d9
:1005dc00d5000000d7000000d8000000d9000000b2
:1005ec00da000000db000000dd000000de0000008f
:1005fc00df000000e0000000e0000000e10000006f
:10060c00e2000000e3000000e3000000e400000052
:10061c00e4000000e5000000e5000000e60000003a
:10062c00e6000000e6000000e6000000e600000026
:10063c00e6000000e6000000e6000000e600000016
:10064c00e6000000e6000000e5000000e500000008
:10065c00e4000000e4000000e3000000e300000000
:10066c00e2000000e1000000e0000000e0000000fb
:10067c00df000000de000000dd000000db000000f9
:10068c00da000000d9000000d8000000d7000000fc
:10069c00d5000000d4000000d2000000d100000002
:1006ac00cf000000ce000000cc000000ca0000000b
:1006bc00c8000000c7000000c5000000c300000017
:1006cc00c1000000bf000000bd000000bb00000026
:1006dc00b9000000b7000000b5000000b200000037
:1006ec00b0000000ae000000ac000000a90000004b
:1006fc00a7000000a5000000a2000000a000000060
:10070c009e0000009b000000990000009600000075
:10071c0094000000920000008f0000008d0000008b
:10072c008a000000880000008500000083000000a3
:10073c00800000007d0000007b00000078000000bd
:10074c007600000073000000710000006e000000d5
:10075c006c0000006a0000006700000065000000eb
:10076c0062000000600000005e0000005b00000002
:10077c005900000057000000540000005200000017
:10078c00500000004e0000004b000000490000002b
:10079c00470000004500000043000000410000003d
:1007ac003f0000003d0000003b000000390000004d
:1007bc003800000036000000340000003200000059
:1007cc00310000002f0000002e0000002c00000063
:1007dc002b0000002900000028000000270000006a
:1007ec00260000002500000023000000220000006d
:1007fc002100000020000000200000001f0000006d
:10080c001e0000001d0000001d0000001c00000068
:10081c001c0000001b0000001b0000001a00000060
:10082c001a0000001a0000001a0000001a00000054
:10083c001a0000001a0000001a0000001a00000044
:10084c001a0000001a0000001b0000001b00000032
:10085c001c0000001c0000001d0000001d0000001a
:10086c001e0000001f0000002000000020000000ff
:10087c0021000000220000002300000025000000e1
:10088c0026000000270000002800000029000000be
:10089c002b0000002c0000002e0000002f00000098
:1008ac00310000003200000034000000360000006f
:1008bc0038000000390000003b0000003d00000043
:1008cc003f00000041000000430000004500000014
:1008dc0047000000490000004b0000004e000000e3
:1008ec0050000000520000005400000057000000af
:1008fc00590000005b0000005e000000600000007a
:10090c006200000065000000670000006a00000043
:10091c006c0000006e00000071000000730000000d
:10092c0076000000780000007b0000007d000000d5
:020000040000fa
:10093c000000fa003003200040118800000028005d
:10094c000011880000402000101188000080fa007f
:10095c00000006000000fa00203a800000c0a10050
:10096c0000d0a10000e0a100203a8800203a8000cd
:10097c000080a1000090a10000a0a100203a8800f6
:10098c000080fa00000006000000fa00e024ef00ee
:10099c00c002a9000000210010278800c842a8004e
:1009ac00c8e2a900c982a9000080fa000000060074
:1009bc000000fa0000032800200888000021ef0046
:1009cc0070012000100888008460a9009460a800c1
:1009dc000080fa00000006000000fa007422ef000c
:1009ec0074e2a800a01380000000a1000010a00079
:1009fc00a013880075e2a8000080fa000000060031
:100a0c0000a0fe003400f800881f780008002000c9
:100a1c00a80188004f0478000000fa0002c8bf004b
:100a2c008080fb0001814000e12928008100410009
:100a3c0091007800b11388000040e80002e8b7008c
:100a4c0002c8bf0002e8b7008460a9000080fa0069
:100a5c003400f9000080fe00004006000000fa009f
:100a6c00bcff0700c8ff0700d1ff0700daff070033
:040a7c00ffff370041
:020000040000fa
:100a80000008000002000000020000000100000059
:100a9000020800000200000000000000000000004a
:020000040000fa
:0200000401f009
:04000000ffff0000fe
:020000040000fa
:0200000401f009
:04000800ffff0000f6
:020000040000fa
:0200000401f009
:04000c00f9ff0000f8
:020000040000fa
:0200000401f009
:0400100033ff0000ba
:020000040000fa
:0200000401f009
:040014005fff00008a
:020000040000fa
:0200000401f009
:04001800ffff0000e6
:020000040000fa
:0200000401f009
:04001c00fdff0000e4
:00000001FF
