:020000040000fa
:080000000002040000000000f2
:020000040000fa
:10000800a6020000a6020000a6020000a602000048
:10001800a6020000a6020000a6020000a602000038
:10002800a6020000a6020000a6020000a602000028
:10003800a6020000a6020000a6020000a602000018
:020000040000fa
:020000040000fa
:100400000f8d20000eff20000e018800000000006c
:10041000000020000000e000020032000001200087
:10042000200288000c00070020f3200001002000bb
:1004300011000700000020000000e0000200320070
:1004400000000200000000009e0e020000000000fc
:100450000040da000000fe004440a90080002000b7
:100460000000e0000300320000002000a00188002e
:100470004440a80000000600910188008000780038
:100480000000eb0015003700e280400032a0b4000d
:100490009101ba00e280400032a0b4009102ba009b
:1004a000e280400032a0b4000002eb00472bde00e7
:1004b000f507b200602ce10004003a000059eb009f
:1004c0008301e900fdff3e00040037006128e100e0
:1004d000010032000082eb00040007001101ba00a5
:1004e0000200e000e8ff3a00000006003159ba00bf
:1004f0008301e9000c0032002159ba008301e900b0
:10050000080032000400e00003003a00e2804000ee
:1005100032a0b400f5ff370011d9ba008301e90019
:10052000faff3a008100e800e180400032a0b40008
:1005300000000600000000000000000000000000b5
:100540000000000000000000000000000040da0091
:100550000000fe000a00fa0011002000b1bf9f0059
:10056000c0bf9f006a8057005d0507004fb8970025
:100570000080fa00000006000a00fa00e20f5000b6
:1005800020003e0000408000e10f500006003200d5
:100590008023200045232000232320000423200063
:1005a0000000e00004003a008022200045222000e4
:1005b00023222000042220000600280014036300e8
:1005c00003003a000608780000002800140a7000b2
:1005d00013a8a30001003a0013a0a00002007800b5
:1005e000050037001388a300feff32003102fb0034
:1005f000840a78000000e9000000e000f9ff3a00fa
:100600000800370033002000b3bf9f00c0bf9f0029
:10061000d1bf9f00e2bf9f006a80570032050700ec
:100620006fb99700020078000080fa000000060011
:100630000a00fa0051002000b1bf9f00c0bf9f0018
:100640006a8057002a0507005fb897000080fa000b
:1006500000000600889fbe0080047800704680007d
:100660000000e00004003a000e0007000084eb00e8
:100670000000e00008003500784680000900e00036
:100680000500320009004400060007000000e000f9
:1006900001003d000084eb00080078004f04be001c
:1006a00000000600800078000100e00003003a002e
:1006b0000000200070468800000005000080eb006c
:1006c00002002000828f500002003e007146880028
:1006d0000000eb0000000600889fbe008a9fbe005d
:1006e00030044200b0844a0030054b0090854b0036
:1006f0006000b1000898be000a90be000440e1000e
:1007000005c8e10006d0e10007d8e1000200310091
:10071000680040001008e8004f05be004f04be000e
:1007200000000600889fbe008a9fbe003004be0005
:100730002005be000418540005985c0006185d00f2
:1007400007985d00110020000440e10005c8e100a9
:1007500006d0e10007d8e100010039008000eb007d
:10076000108810004f05be004f04be0000000600b8
:100770001200fa00889fbe008a9fbe008c9fbe00b8
:10078000e0b79f00f1b79f0082bf9f0093bf9f001b
:100790000605be000404be000000eb00d0b79f00b9
:1007a000c0b79f00b0b79f00a0b79f0090b79f0051
:1007b0000006eb005fb19700cfb0970082014100c7
:1007c0003fb097000200e00004003d003700070042
:1007d0007e805700c0ff070003003700330007008a
:1007e0007e805700cfff0700dfb697000d00e000c6
:1007f0000c0035006fb29700ffb297000fbb970057
:100800009fbb970010002000010020006011b8007d
:1008100000027200818272000203730083837300fe
:100820001b0007000c06e80001042000810f5600a1
:10083000e0ff3a000d00e00004003d000802be00a9
:100840000a03be007e805700a3ff07005fa8970041
:100850000000e00005003a001fb29700afb2970019
:100860003fb39700cfb39700090007006fb0970020
:10087000ffb097000fb997009fb997004f06be00d1
:100880004f05be004f04be000080fa0000000600c5
:100890000100070000000600a4b79f00b5b79f0045
:1008a000c6b79f00d7b79f00000006004f09de00c3
:1008b00082817100b3b79f004f01de00818040004c
:1008c00082807000a1b79f008fb097004f09de00b3
:1008d000000040000200700090b79f007fa89700c2
:1008e0004f01de00818040008280700081b79f0050
:1008f0000d0007004f3ade000000400004007000c9
:10090000f0af9f00080007000402420085824a0001
:1009100006034b0087834b00dfff07000802be0081
:100920000a03be00000006002fb29700bfb2970076
:100930004fb39700dfb3970000000600881f7800d0
:1009400018002000881f780089ff07008f87e900c2
:100950004f04780000000600801feb0084ff0700b2
:100960008f87e90000000600889fbe008a9fbe00b6
:10097000e00f5000e08f5800e00f5900e08f590061
:100980000c003d006044b8006055b8000000540001
:1009900081805c0002015d0083815d001800200001
:1009a0001500070008003d00180007000004eb00d8
:1009b000050037000004eb000f00070002003d00b7
:1009c0001200070018002000dcff07000800e0000c
:1009d000060032006022b8006033b8000000520008
:1009e00081805a0002015b0083815b004f05be00dd
:1009f0004f04be0000000600e00f5200e08f5a00d6
:100a0000e00f5b00e08f5b00000006006044b80070
:100a10006055b8000402540085825c0006035d0046
:100a200087835d0000000600889fbe008a9fbe008d
:100a30008c1f7800e00f5000e08f5800e00f590045
:100a4000e08f59000d003d006044b8006055b800cb
:100a50000000540081805c0002015d0083815d0024
:100a60001c0020000820e10009a8e1000ab0e10014
:100a70000bb8e1000d003d00080037000006eb0058
:100a8000e00f5200e08f5a00e00f5b00e08f5b0048
:100a900006003d006044b8006055b80004025400f0
:100aa00085825c0006035d0087835d00aaff070066
:100ab0000c00e000060032006022b8006033b8008d
:100ac0000000520081805a0002015b0083815b00bc
:100ad0004f0678004f05be004f04be000000060020
:100ae000889fbe008a9fbe008c1f78000006eb0026
:100af000e00f5000e08f5800e00f5900e08f5900e0
:100b000007003d006044b8006055b8000000540084
:100b100081805c0002015d0083815d001c0020007b
:100b2000e00f5200e08f5a00e00f5b00e08f5b00a7
:100b300007003d006044b8006055b800040254004e
:100b400085825c0006035d0087835d000c00a200c7
:100b50000c0007000c00e000060032006022b80024
:100b60006033b8000000520081805a0002015b002f
:100b700083815b004f0678004f05be004f04be0026
:100b800000000600889fbe008a9fbe008c9fbe00aa
:100b90000404b8000506b8008904460060854e00cc
:100ba0000606b8000a054600e0854e000706b800b4
:100bb0008b054600040eb800890446000a854e00e5
:100bc000e0854d00050eb8000a0546008b854e00f5
:100bd000060eb8008b0546000416b8000a0546004c
:100be0008b854e000516b8008b054600041eb80024
:100bf0008b0546000800be000a01be004f06be007d
:100c00004f05be004f04be0000000600889fbe00d6
:100c100000047800010078008204780088017800e0
:100c20000901780011002000ef000700890f500033
:100c3000010032000004eb00080078004f04be0001
:100c4000000006000000fa00e88157004fb9970045
:100c5000c184200060602000020007000080fa00cc
:100c6000000006006200fa00889fbe008a1f78001c
:100c70000005780081047800020478008300780081
:100c800080f92f000f004000510207009a979f0043
:100c9000a9979f000000eb00b09f9f001885fb0004
:100ca0008a04fb000a05ea004f55de0050022000ce
:100cb000808f54000d003200e10f55000b003a0008
:100cc0000a017800880078002f9097009f91970084
:100cd00003000100a0979f000000e0008e0032009a
:100ce0003f9897000000e800b09f9f000a0444006e
:100cf00050022000808f5400040032000900e00000
:100d0000e6ff3a003f989700840037000000eb00b0
:100d1000909f9f00809f9f00f0979f00e0979f000b
:100d2000d0979f00c0979f0007003700018c2000dc
:100d30000100500000004000418b2000610078005d
:100d4000df98970001007000d09f9f008804780012
:100d500009047800384578008a00fb00008c2000e8
:100d6000060107000000e000f0ff3a00a1c2b30056
:100d7000814f55000e003a00cf8897000180e900ae
:100d8000c08f9f0010007800c09f9f000000e0000f
:100d900005003d000000ea00c09f9f005f9897009b
:100da0000020a000d09f9f000904e8000f0037003a
:100db000c09f9f000000eb0005003700f2ff2700f6
:100dc000820f5000020032006a01b9000280400028
:100dd0000904780088047800b900fb000103b10021
:100de000e98f5000f5ff3600c09f9f00e0c2b300be
:100df000984f1000020032000080eb00190037000d
:100e0000a0c2b300d84f100007003a00cf88970067
:100e10000180e900c08f9f0010007800a09f9f0014
:100e20000804e800100037000000eb00a09f9f00be
:100e30008800780005003700f3ff2700830f50007b
:100e4000020032006a02b900040041000104780087
:100e5000880078003101fb000203b100e90f510066
:100e6000f5ff3600a09f9f00984478008900fb00a2
:100e7000c08a2000c10007000000e000020032002c
:100e80000804e800010037008044eb00c97f9f00a0
:100e900080c6b30080cf540004003a0098cf1400fd
:100ea0000a003a006640500006003700c0c6b30092
:100eb00080cf540005003a0098cf140003003a0098
:100ec00065404000c07f9f000804e8001801fb0057
:100ed000e3fb2f008f81410081f92f008f804000bc
:100ee000a0f92f000f004000100007000000e000f4
:100ef00009003a00e1fb2f008f804000a0f92f008d
:100f00000f004000f60007000000e000020035007e
:100f10000804e80061ff37000080eb004f0578000f
:100f20004f04be000080fa0000000600889fbe004b
:100f30008a1f78000004780030c5b300804f51004c
:100f40000800320030c7b300804f51000500320066
:100f500051c2b30078009000814f510017003a0051
:100f6000140037001180e90080087800100578002f
:100f70006a049800d80c90000900e00004003d00cd
:100f80000a00780089000700800478000700370015
:100f9000090178008000eb000a0078006600070075
:100fa0000000e000010032008a045000190c980093
:100fb0000900370082717800050037008081410008
:100fc0000204e00001003a00014178008249780003
:100fd0000000e800700498000000eb004f05780066
:100fe0004f04be0000000600889fbe008a9fbe001e
:100ff0008c9fbe008e1f78000006780001047800e8
:1010000002007800830478000881b90002077800a4
:101010000200e000420032000800e000410032001f
:1010200082057800c900900069009000808f500010
:101030000400390009007800620007000000e000a9
:101040002900350000402000190060000a0032002d
:101050000b017800a10020000c007800360007008a
:10106000800678000d00e0000600320061051600e1
:101070000a854600040037000b0578008006eb0067
:10108000010037000b05780049009000e90090004e
:10109000808050008a8f50000200310001057800e6
:1010a0008006eb000a0178008c0078002c00070015
:1010b0008a855500490090000a004000c00498004d
:1010c0000d00e0000400320009007800a5010700cf
:1010d0000000e00004003a000b00e00002003200d3
:1010e0000a064600cfff370000802000190060008c
:1010f00002003200090078009a01070000c02000b9
:10110000190060000200320049009000e0049800dd
:101110008b055700110009008885d80001003700b1
:101120000000eb004f0778004f06be004f05be00e1
:101130004f04be000000060003003700b0cf1000cf
:10114000050032000201e900800178000200e000a1
:10115000faff3a00000005000300780000000600d6
:101160008001780002003700b15978000201e900df
:101170000200e000fcff3a00000006000200370019
:101180000304e0000600320000017800020078004d
:10119000b041780081cf5100f9ff3a0001003700db
:1011a0000001eb00020078000000060080007800db
:1011b000010178003104e000fdff3a000000510019
:1011c00000000600889fbe008a1f78000004780097
:1011d000c8009000680190000000eb00828f500072
:1011e0003c0039001800780022002900020160004c
:1011f000e20f510007003200012024000000e0004f
:1012000001003d0001202000008c70000080eb00f8
:10121000300037000200260002006000820f5000fc
:1012200009003a0038009000808f50000600390015
:10123000080078004b010700800078000080eb0078
:101240000100e00023003a001805780000c02000eb
:101250000000650018003a00a80490006002200019
:1012600008004000808f540013003a000020200046
:10127000e7010700200498000000e00005003a00a4
:1012800029049800490498008904e800390498006a
:10129000080037000a60a0000a0c7800400498009b
:1012a000012020008080400031049800400c98000c
:1012b000500c9800ca0007002800900050049800c5
:1012c000380090006004980000002600180c7000a0
:1012d0000000eb004f0578004f04be000000060040
:1012e0000400fa00889fbe008a9fbe008c1f780011
:1012f0000004780001067800f80d90007800900056
:1013000080855500080890008085550018089000d9
:101310008085550028089000808555003808900089
:101320008085550048089000808555000002220005
:1013300090bf9f0000032300a0bf9f0008109000f3
:101340000028a30015003a000b00e0001300340051
:101350000b0578008a047800e20f55000100360082
:1013600029002000c801900009017800ee80570094
:101370005800900003000100500498000000e000b5
:101380008c0032006808900009004000600c980052
:10139000090555004240a900eeff3c00780190008d
:1013a0000200e0000c003400c80190008c007800be
:1013b0005800900003000100500498008080eb006a
:1013c0000000e0007c003200e80890007800900007
:1013d00000804000600c9800880c90000900e0003c
:1013e0001100340009057800e28f54000100360036
:1013f0002a002000c80190000a017800ec80570004
:101400005800900003000100500498000000e00024
:1014100068003200680890000a004000600c9800e4
:101420008a845400edff3700180990000200e000a4
:101430000c003400c8019000e800900058009000b3
:1014400003000100500498008080eb000000e000e1
:1014500059003200e8089000180890000080400011
:10146000600c9800a80c90000900e0001100340006
:1014700009057800e28f5400010036002a002000a0
:10148000c80190000a017800ec80570058009000d5
:1014900003000100500498000000e0004500320005
:1014a000680890000a004000600c98008a8454008c
:1014b000edff3700380990000200e0000e00340014
:1014c000e80090001808900080804000c80190005b
:1014d0005800900003000100500498008080eb0049
:1014e0000000e00034003200e80890003808900066
:1014f00000804000600c9800c80c90000900e000db
:101500001100340009057800e28f54000100360014
:101510002a002000c80190000a017800ec805700e2
:101520005800900003000100500498000000e00003
:1015300020003200680890000a004000600c98000b
:101540008a845400edff3700081090008000eb0003
:101550000028a300180032000b00e0001600340041
:101560008b04780009057800e28f540001003600f2
:101570002a002000c80190000a017800ee80570080
:101580005800900003000100500498000000e000a3
:1015900008003200680890000a004000600c9800c3
:1015a0008a8454004240a900eeff3c008000eb001a
:1015b000010037008080eb00010078004f067800c2
:1015c0004f05be004f04be000080fa000000060078
:1015d000010878000000060020b920009b003700b9
:1015e000881f7800a88c20001804e00003003a004f
:1015f000f9ff070020c0b300004c78004f047800ca
:1016000000000600889fbe000004780008007800f3
:1016100054000700800478000004200018006000d7
:101620000200320028009000940007000000eb0048
:1016300020049800384090000004e00005003500c8
:101640000000fb00c3fb07000000e00001003200c7
:101650008084eb00181090000000e00008003200c9
:10166000f3fb07000000e000010032008084eb0083
:1016700018109000810007000000eb001014980083
:101680000008200018006000150032000001eb0087
:101690006000b800c38920000202d00063027a0013
:1016a000880f520005003a00000040008180480089
:1016b000008041000008eb00060037006100400098
:1016c000e08048000201e800e80f5000e08f580079
:1016d000f0ff3a0008007800680007000e003700ad
:1016e000000c780000c0eb0030449800600220003d
:1016f000080040002004980040049800500498001e
:10170000400c980060049800500c980070049800f9
:1017100076004400000c9800090078004f04be00d9
:1017200000000600881f78000004eb006140b8004c
:10173000e2ff2f00f3ff2f00ef000700a28a200036
:10174000620078000000e00001003200adff0700f9
:101750000804e800e80f5400f4ff3a004f04780052
:1017600000000600889fbe00000478000800e0002a
:101770000e003a008004eb008800d000c0892000f1
:10178000610078000000e00004003200f5ff07006f
:101790000000e00001003d008084eb000804e80048
:1017a000e80f5400f4ff3a00250037000000220043
:1017b000180060008004eb0021003200a8049000b3
:1017c0000f00370009015100384090000000fb0075
:1017d0008900780068fb07000000e00007003c007b
:1017e000280090004004980060049800500c980075
:1017f0001890a0008084eb00110037008084440022
:1018000048019000828f5400eeff390028009000bc
:10181000400498009800780002c020000281600017
:1018200001003a003800900001e8a30002003200f5
:101830006004980001003700500c98008004eb0011
:10184000090078004f04be000000060001002000df
:101850000100e00008003200010080000100e0000b
:10186000050032008100e900010088008100d000fd
:101870000200800000b17800000006000000e000d7
:101880002f003200c0017800e38f51002c00360099
:101890000308a3002a003a00414680000100e0004e
:1018a00002003200810f5000040031001100980046
:1018b0004046880016003700820078001101900031
:1018c0000200e00002003200800f5100faff3900f0
:1018d0001102780084824000850f50001800390002
:1018e000808f520003003a00830842000100780014
:1018f000070037000200e0000300320083014000cf
:10190000830f51000e0039001200980090009800db
:10191000900090000100e00009003200100140003a
:10192000828f500006003a00628c20000009eb0014
:1019300010017800110841009100900011009800fa
:1019400000000600889fbe00000478003146800039
:101950000100e00002003200010078000d003700b5
:1019600041468000808c200004003700910f540015
:10197000250036000180e800910090000100e000a1
:10198000faff3a0010003700920f54001e00360094
:101990000280e800100178000200e000faff3a003f
:1019a0001101780041468000808c2000040037003f
:1019b000910f5400140036000180e800910090005f
:1019c000828f5000faff3a0069468000888f5400e9
:1019d0000100310088047800090078003600070013
:1019e0000000e00004003a00888f54000500320037
:1019f0008904d100f5ff3700091878009fff070020
:101a0000d2ff37000000eb004f04be0000000600cc
:101a1000881f7800630440000800a1008000eb00ec
:101a2000800f540021003600e30f540001003e00f7
:101a30004800200008007800c2ff07008000eb008b
:101a40000000e00019003200900078009101780059
:101a500064815100880f5100030031001101900092
:101a6000020878000700370008814000020878006b
:101a700091019000130198001001780011091400e1
:101a800088087800100178000000eb000200e000f8
:101a900004003200920190000300e00001003200d7
:101aa0000280e800304688008180e800010078006c
:101ab0004f04780000000600800078000000eb0072
:101ac0000100e0000500340001007800e1fa0700a1
:101ad000e10f400001003a000000eb0000000600aa
:101ae00000c0da000000060000c0da0000000600b6
:101af00000c0da0000000600020ab900001bb900ad
:101b00000200b8008100420081004300000006008e
:020000040000fa
:101b10000d0a0000537400006172000074000000a0
:020000040000fa
:101b20000000fa0030032000401188000000280067
:101b30000011880000402000101188000080fa0089
:101b4000000006000000fa00101180006100600033
:101b50000000e000030032003011800000407800f7
:101b60000100370000c3b3000080fa000000060047
:101b70000000fa00f3ff070018e8b7008181200099
:101b80009140780030c5b30080cf500002003a0089
:101b900010c0b30019e8b70081812000914078009f
:101ba00000c5b30080cf500001003a001968ef0073
:101bb000818120009140780020c5b30080cf500083
:101bc00005003a001a28ef001c28ef001e28ef003d
:101bd0002028ef002228ef000080fa000000060015
:101be0000000fa00e000200010168800d0408000bd
:101bf000800040002080200000804000100078001d
:101c000050168800b0408000cf80de006109b90026
:101c100004402200450f20006033b800b0fb0700ed
:101c2000843e2000050020006033b80043fb07001d
:101c30000000be00e4000700d0002000101688005d
:101c4000e0408000800040002080200000804000b4
:101c50001000780050168800b0408000cf80de0071
:101c60006109b90004402200450f20006033b8002c
:101c70009bfb0700843e2000050020006033b80075
:101c80002efb07000000be00cf000700b0002000c0
:101c900010168800f0408000800040002080200066
:101ca000008040001000780050168800b04080008e
:101cb000cf80de006109b90004402200450f2000fa
:101cc0006033b80086fb0700843e2000050020003a
:101cd0006033b80019fb07000000be00ba0007001f
:101ce0007000200010168800004180008000400035
:101cf00020802000008040001000780050168800ee
:101d0000b0408000cf80de006109b90004402200ad
:101d1000450f20006033b80071fb0700843e2000af
:101d2000050020006033b80004fb07000000be007f
:101d3000a50007000080fa00000006000000fa007d
:101d4000203a800000c0a10000d0a10000e0a10066
:101d5000203a8800203a80000080a1000090a10075
:101d600000a0a100203a8800e024ef00e224ef0068
:101d7000c022ef00400020004016880068ff0700e6
:101d800080d82800801f7800aefb07008f87e9000d
:101d900009003700000000000700370000000000c5
:101da00005003700000000000300370000000000bd
:101db00001003700000000002228ef000500370076
:101dc0006bff070086ff0700104180000000e8005d
:101dd0001041880011418000900f2000808f50003a
:101de000f7ff340019c8bf000004e000e9ff32002b
:101df000d04080000000e800d0408800d040800043
:101e0000e90f5000e5ff34001a28ef00e0408000a1
:101e10000000e800e0408800e0408000e50f50004e
:101e2000e0ff34001c28ef00f04080000000e800d4
:101e3000f0408800f0408000e80f5000dbff3400e5
:101e40001e28ef00004180000000e80000418800eb
:101e500000418000e60f5000d6ff3a001968ef00fd
:041e6000d5ff370073
:020000040000fa
:101e6400000800001800000002000000010000004b
:101e7400c000f90000a40000b00099000092000026
:101e84008200f800008000009001000018080000a3
:101e94000c00000000000000ac0800001a00000064
:101ea40002000000686a6c00747a4c0000000100b3
:101eb40000020000040008000010000000002000e0
:101ec4002b2d2300300000002408000088000000af
:101ed4000200000001000000004a08004b084a000c
:101ee400084a08004a084a00083a080000000000ae
:101ef40000000000000000000000000000000000de
:101f0400000000000000000000020800010172004f
:101f140008730800720872000872080072086200f0
:101f240008000000000000000000000000000000a5
:101f3400000000000000000000000000000002009b
:101f4400080202009a089b00089a08009a089a005e
:101f5400089a08008a080000000000000000000041
:101f6400000000000000000000000000000000006d
:101f74000000000024084c00087408000000000061
:101f8400000000000000000000000000ca0800007b
:101f94000200000000000000cc0800000200000065
:101fa4000200000004000000c60800000400000055
:101fb40000000000ce080000020000000000000045
:041fc4000000000019
:020000040000fa
:101fc800f03fb1000180b10006003500ee030900c2
:101fd80000000000403fb1000180b100fbff3d0060
:101fe8001000b000203fb00002003500008009005a
:081ff8000000000000000600db
:020000040000fa
:0200000401f009
:04000000ffff0000fe
:020000040000fa
:0200000401f009
:04000800ffff0000f6
:020000040000fa
:0200000401f009
:04000c00f9ff0000f8
:020000040000fa
:0200000401f009
:0400100033ff0000ba
:020000040000fa
:0200000401f009
:040014005fff00008a
:020000040000fa
:0200000401f009
:04001800ffff0000e6
:020000040000fa
:0200000401f009
:04001c00fdff0000e4
:00000001FF
