:020000040000fa
:080000000002040000000000f2
:020000040000fa
:100008009a0200009a0200009a0200009a02000078
:100018009a0200009a0200009a0200009a02000068
:100028009a0200009a0200009a0200009a02000058
:100038009a0200009a0200009a0200009a02000048
:020000040000fa
:020000040000fa
:100400002f8020000eff20000e0188000000000059
:10041000000020000000e000020032000001200087
:10042000200288000c00070020612000010020004d
:1004300011000700000020000000e0000200320070
:100440000000020000000000620502000000000041
:100450000040da000000fe004440a9000000200037
:100460000000e0000300320000002000a00188002e
:100470004440a80000000600910188008000780038
:100480000000eb0015003700e280400032a0b4000d
:100490009101ba00e280400032a0b4009102ba009b
:1004a000e280400032a0b4000002eb00472bde00e7
:1004b000f507b200602ce10004003a000059eb009f
:1004c0008301e900fdff3e00040037006128e100e0
:1004d000010032000082eb00040007001101ba00a5
:1004e0000200e000e8ff3a00000006003159ba00bf
:1004f0008301e9000c0032002159ba008301e900b0
:10050000080032000400e00003003a00e2804000ee
:1005100032a0b400f5ff370011d9ba008301e90019
:10052000faff3a008100e800e180400032a0b40008
:10053000000006000040da000000fe00889fbe00b8
:100540008a9fbe0030044200b0844a0030054b0050
:1005500090854b006000b1000898be000a90be0074
:100560000440e10005c8e10006d0e10007d8e10041
:1005700002003100680040001008e8004f05be008e
:100580004f04be0000000600889fbe008a9fbe0088
:100590003004be002005be000418540005985c001d
:1005a00006185d0007985d00110020000440e1007e
:1005b00005c8e10006d0e10007d8e10001003900dc
:1005c0008000eb00108810004f05be004f04be00f5
:1005d000000006001200fa00889fbe008a9fbe003d
:1005e0008c9fbe00e0b79f00f1b79f0082bf9f00c5
:1005f00093bf9f000605be000404be000000eb0090
:10060000d0b79f00c0b79f00b0b79f00a0b79f00b2
:1006100090b79f000006eb005fb19700cfb0970046
:10062000820141003fb097000200e00004003d005d
:10063000370007007e805700c0ff07000300370027
:10064000330007007e805700cfff0700dfb697001a
:100650000d00e0000c0035006fb29700ffb297006c
:100660000fbb97009fbb97001000200001002000e7
:100670006011b800000272008182720002037300f0
:10068000838373001b0007000c06e80001042000b0
:10069000810f5600e0ff3a000d00e00004003d002d
:1006a0000802be000a03be007e805700a3ff0700b9
:1006b0005fa897000000e00005003a001fb2970015
:1006c000afb297003fb39700cfb397000900070080
:1006d0006fb09700ffb097000fb997009fb99700d0
:1006e0004f06be004f05be004f04be000080fa005a
:1006f000000006000100070000000600a4b79f00ec
:10070000b5b79f00c6b79f00d7b79f00000006008f
:100710004f09de0082817100b3b79f004f01de00f8
:100720008180400082807000a1b79f008fb0970049
:100730004f09de00000040000200700090b79f00eb
:100740007fa897004f01de0081804000828070000a
:1007500081b79f000d0007004f3ade000000400007
:1007600004007000f0af9f00080007000402420080
:1007700085824a0006034b0087834b00dfff07009a
:100780000802be000a03be00000006002fb2970058
:10079000bfb297004fb39700dfb397000000060089
:1007a000881f780018002000881f780089ff070044
:1007b0008f87e9004f04780000000600801feb00df
:1007c00084ff07008f87e90000000600889fbe00b5
:1007d0008a9fbe00e00f5000e08f5800e00f5900e4
:1007e000e08f59000c003d006044b8006055b8002f
:1007f0000000540081805c0002015d0083815d0087
:10080000180020001500070008003d001800070030
:100810000004eb00050037000004eb000f000700a8
:1008200002003d001200070018002000dcff070056
:100830000800e000060032006022b8006033b80013
:100840000000520081805a0002015b0083815b003e
:100850004f05be004f04be0000000600e00f52002e
:10086000e08f5a00e00f5b00e08f5b0000000600a5
:100870006044b8006055b8000402540085825c00f2
:1008800006035d0087835d0000000600889fbe00b0
:100890008a9fbe008c1f7800e00f5000e08f580048
:1008a000e00f5900e08f59000d003d006044b80092
:1008b0006055b8000000540081805c0002015d00ba
:1008c00083815d001c0020000820e10009a8e100f0
:1008d0000ab0e1000bb8e1000d003d000800370050
:1008e0000006eb00e00f5200e08f5a00e00f5b00c3
:1008f000e08f5b0006003d006044b8006055b80022
:100900000402540085825c0006035d0087835d005d
:10091000aaff07000c00e000060032006022b800c9
:100920006033b8000000520081805a0002015b0071
:1009300083815b004f0678004f05be004f04be0068
:1009400000000600889fbe008a9fbe008c1f7800b2
:100950000006eb00e00f5000e08f5800e00f590058
:10096000e08f590007003d006044b8006055b800b2
:100970000000540081805c0002015d0083815d0005
:100980001c002000e00f5200e08f5a00e00f5b00d7
:10099000e08f5b0007003d006044b8006055b80080
:1009a0000402540085825c0006035d0087835d00bd
:1009b0000c00a2000c0007000c00e0000600320052
:1009c0006022b8006033b8000000520081805a00f5
:1009d00002015b0083815b004f0678004f05be007b
:1009e0004f04be0000000600889fbe008a9fbe0024
:1009f0008c9fbe000404b8000506b80089044600b8
:100a000060854e000606b8000a054600e0854e00e7
:100a10000706b8008b054600040eb800890446009e
:100a20000a854e00e0854d00050eb8000a05460017
:100a30008b854e00060eb8008b0546000416b800e4
:100a40000a0546008b854e000516b8008b0546004a
:100a5000041eb8008b0546000800be000a01be0057
:100a60004f06be004f05be004f04be00000006004a
:020000040000fa
:100a70000000fa00203a800000c0a10000d0a100d0
:100a800000e0a100203a8800203a80000080a10008
:100a90000090a10000a0a100203a88000080fa0088
:100aa000000006000000fa00e024ef00c022a800c9
:100ab000c042a800e224ef00c9e2a9000080fa00c9
:100ac000000006000800fa00e9ff0700f5ff070034
:100ad00000f421002007980000052000300798004e
:100ae0000000eb00000f7800ae00900011079800a6
:100af000cbe2a8001e007800cf80de006109b900bb
:100b000004402200450f20006033b8008dff07002d
:100b100004242400f50020006033b80020ff070003
:100b20000000be0031000700cbe2a9001e009000cb
:100b3000cf80de006109b90004402200450f20008b
:100b40006033b8007fff070004242400f500200074
:100b50006033b80012ff07000000be00230007004a
:100b600010168000620060000000e0000900320002
:100b70002e0090009e007800808f500005003c0001
:100b80001e0090000000e000020035003e009000d2
:100b90001e0f40009e0090003e009000008050001c
:100ba0001007980010168000640060000000e0004c
:100bb000090032001e0078000000e0000600350049
:100bc0009e0090002e009000808f500002003c009c
:100bd0003e0090001e0f10009e0090003e0090000e
:0c0be0000080400010079800c1ff3700a3
:020000040000fa
:100bec00f03fb1000180b10006003500ee030900b2
:100bfc0000000000403fb1000180b100fbff3d0050
:100c0c001000b000203fb000020035000080090049
:080c1c000000000000000600ca
:020000040000fa
:100c240000080000020000000200000001000000b3
:040c340000000000bc
:020000040000fa
:0200000401f009
:04000000ffff0000fe
:020000040000fa
:0200000401f009
:04000800ffff0000f6
:020000040000fa
:0200000401f009
:04000c00f9ff0000f8
:020000040000fa
:0200000401f009
:0400100033ff0000ba
:020000040000fa
:0200000401f009
:040014005fff00008a
:020000040000fa
:0200000401f009
:04001800ffff0000e6
:020000040000fa
:0200000401f009
:04001c00fdff0000e4
:00000001FF
