:020000040000fa
:080000000002040000000000f2
:020000040000fa
:10000800a2020000a2020000a2020000a202000058
:10001800a2020000a2020000a2020000a202000048
:10002800a2020000a2020000a2020000a202000038
:10003800a2020000a2020000a2020000a202000028
:020000040000fa
:020000040000fa
:100400006f8920000eff20000e0188000000000010
:10041000000020000000e000020032000001200087
:10042000200288000c0007006089200001002000e5
:1004300011000700000020000000e0000200320070
:10044000000002000000000072080200000000002e
:100450000040da000000fe004440a90080012000b6
:100460000000e0000300320000002000a00188002e
:100470004440a80000000600910188008000780038
:100480000000eb0015003700e280400032a0b4000d
:100490009101ba00e280400032a0b4009102ba009b
:1004a000e280400032a0b4000002eb00472bde00e7
:1004b000f507b200602ce10004003a000059eb009f
:1004c0008301e900fdff3e00040037006128e100e0
:1004d000010032000082eb00040007001101ba00a5
:1004e0000200e000e8ff3a00000006003159ba00bf
:1004f0008301e9000c0032002159ba008301e900b0
:10050000080032000400e00003003a00e2804000ee
:1005100032a0b400f5ff370011d9ba008301e90019
:10052000faff3a008100e800e180400032a0b40008
:1005300000000600000000000000000000000000b5
:10054000000000000040da000000fe000a00fa008f
:1005500011002000b1bf9f00c0bf9f006a805700fc
:100560009b0207004fb897000080fa0000000600c9
:100570000a00fa00e20f500020003e000040800018
:10058000e10f5000060032008023200045232000a8
:1005900023232000042320000000e00004003a0090
:1005a0008022200045222000232220000422200057
:1005b000060028001403630003003a0006087800d0
:1005c00000002800140a700013a8a30001003a00dc
:1005d00013a0a00002007800050037001388a300d4
:1005e000feff32003102fb00840a78000000e900bf
:1005f0000000e000f9ff3a00080037003300200057
:10060000b3bf9f00c0bf9f00d1bf9f00e2bf9f004c
:100610006a805700700207006fb9970002007800e7
:100620000080fa00000006000a00fa0051002000d5
:10063000b1bf9f00c0bf9f006a80570068020700db
:100640005fb897000080fa0000000600889fbe0097
:1006500080047800a04480000000e00004003a001c
:100660000e0007000084eb000000e00008003500e9
:10067000a84480000900e0000500320009004400a1
:10068000060007000000e00001003d000084eb00d0
:10069000080078004f04be000000060080007800cb
:1006a0000100e00003003a0000002000a0448800a0
:1006b000000005000080eb0002002000828f500047
:1006c00002003e00a14488000000eb00000006008c
:1006d000a18220002f000700800078000080eb003e
:1006e0000100e00004003500a1822000a0002000ed
:1006f000020007004f80de0000000600889fbe0059
:100700008a1f78000004be00c900900069009000b4
:10071000808f500005003900090078009100070023
:100720008080eb000000e0001600350008457800ee
:100730004900900008587800c0049800190078001b
:1007400000b8a30004003a0000a8a300070032008c
:10075000ea4f540005003a00090078002101070023
:100760008080eb000000e00006003a0000c020009e
:10077000190060000200320049009000e004980077
:100780008a80fb00010078004f0578004f04be000e
:1007900000000600889fbe008a9fbe008c1f780064
:1007a00080047800010478002f003700c800900012
:1007b00068009000808f5000040039000800780025
:1007c000680007000000e0003a003500004020000b
:1007d000180060000a003200a10020000900780023
:1007e00050000700000678000c00e0000400320012
:1007f000618514000a054600cfd5de0004003700ed
:10080000090078003b0007000005be000006eb0071
:10081000480090006801900000015100cf91de0077
:100820008a0f51008b8f5900020031000205be0073
:100830000006eb000a01be008900780022000700d4
:10084000480090000a004000400498000c00e000be
:100850000400320008007800e20007000000e00019
:1008600014003a008a8444001904e000cfff3a00e3
:1008700000802000180060000600320008007800a8
:10088000d8000700800078000080eb000100e00045
:1008900009003a0001c02000988060000000eb00d1
:1008a0000500320048009000600498000000eb0052
:1008b000010037000080eb004f0678004f05be00b6
:1008c0004f04be00000006000202be008001eb00e3
:1008d0000400370061f0790061025200e0825a00a2
:1008e0008301e800e00f5200e08f5a00f9ff3a0060
:1008f00000000600800078000000eb00610ab800ec
:100900006101b800040341000000e800644179007f
:100910000204e000f9ff3a0001005300cf80de003e
:1009200000000600889fbe006011b8006103b80097
:100930006112b8000404430085844b0066427a00cb
:10094000814f520001003a00880178000201e8005e
:100950000404e000f5ff3a00030078004f04be00f5
:1009600000000600889fbe008a1f780000047800ff
:10097000c8009000680190000000eb00828f5000da
:100980003d003900180078002200290002016000b3
:10099000e20f510007003200012024000000e000b7
:1009a00001003d0001202000008c70000080eb0061
:1009b000310037000200260002006000820f500064
:1009c00009003a0038009000808f5000060039007e
:1009d0000800780083000700800078000080eb00aa
:1009e0000100e00024003a001805780000c0200053
:1009f0000000650019003a00a80490006002200081
:100a000008004000808f540014003a0000202000ad
:100a1000010020002b010700200498000000e000e6
:100a200005003a0029049800490498008904e80068
:100a300039049800080037000a60a0000a0c78000a
:100a4000400498000120200080804000310498007c
:100a5000400c9800500c98000c00070028009000f3
:100a600050049800380090006004980000002600b0
:100a7000180c70000000eb004f0578004f04be001a
:100a800000000600c05d200091003700881f78003c
:100a9000288920001804e00003003a00f9ff07004d
:100aa00020c0b300004c78004f047800000006001e
:100ab000889fbe0000047800080078004900070005
:100ac000800478000004200018006000020032005a
:100ad000280090008a0007000000eb002004980026
:100ae000384090000004e000050035000000fb00e5
:100af00096fe07000000e000010032008084eb0059
:100b0000181090000000e00008003200c6fe070048
:100b10000000e000010032008084eb00181090001b
:100b2000770007000000eb00101498000008200078
:100b3000180060000f003200818720000000eb00e9
:100b4000d10f140005003a0000004000a1872000ea
:100b5000008040000008eb00030037000000e800c0
:100b6000e80f5000f6ff3a00080078006400070024
:100b70000e003700000c780000c0eb0030449800f5
:100b80006002200008004000200498004004980003
:100b900050049800400c980060049800500c980095
:100ba0007004980076004400000c9800090078005a
:100bb0004f04be0000000600889fbe00a8882000e9
:100bc000f0045400480078000000e000010032000a
:100bd000b7ff0700890f5400faff3a004f04be0028
:100be00000000600889fbe008a1f7800000478007d
:100bf0000800e0000d003a008887200070054400de
:100c00008004eb00580078000000e000040032008f
:100c1000f4ff07000000e00001003d008084eb00cd
:100c20008a0f5400f7ff3a00250037000000220029
:100c3000180060008004eb0021003200a80490003e
:100c40000f00370009015100384090000000fb0000
:100c50008900780046fe07000000e00007003c0025
:100c6000280090004004980060049800500c980000
:100c70001890a0008084eb001100370080844400ad
:100c800048019000828f5400eeff39002800900048
:100c9000400498009800780002c0200002816000a3
:100ca00001003a003800900001e8a3000200320081
:100cb0006004980001003700500c98008004eb009d
:100cc000090078004f0578004f04be0000000600c0
:100cd000010020000100e000080032000100800057
:100ce0000100e000050032008100e90001008800f9
:100cf000818040000200800000b178000000060002
:100d00000000e000320032004002be00e50f520059
:100d1000e08f5a002e0036000408a3002c003a0091
:100d2000814480000100e00002003200810f500089
:100d3000040031002100980080448800170037002b
:100d400082007800210190000200e00002003200e1
:100d5000800f5100faff39001103be008681400068
:100d6000830f50001a003900808f510004003a00b0
:100d70008418430085904b0001007800070037007d
:100d80000200e0000300320004024000840f510022
:100d90000f00390022009800a0009800a0009000e9
:100da0000100e0000a00320010014000828f500074
:100db00007003a00e28820000009eb001001be00a5
:100dc0003118410021904900a100900021009800b5
:100dd00000000600889fbe008a9fbe000004be007f
:100de000714480000100e000020032000100780040
:100df0000f00370081448000008920000500370083
:100e0000b10f5400a18f5c002b00360064804000bd
:100e1000a10090000100e000f9ff3a001200370045
:100e2000b20f5400a28f5c00230036006400410022
:100e3000100178000200e000f9ff3a00110178008b
:100e4000814480000089200005003700b10f540064
:100e5000a18f5c001800360064804000a100900063
:100e6000828f5000f9ff3a005a4480006b448000a2
:100e7000880f5500898f5d00010031000805be0014
:100e80000a00be00460007000000e00006003a002d
:100e9000880f5500898f5d00060032008b05d10058
:100ea0000a85d300f2ff37000a98be0094ff0700be
:100eb000cbff37000000eb004f05be004f04be0023
:100ec00000000600889fbe000002be0065004000d2
:100ed000e0804800000378000600a100810178004e
:100ee000060178000204be008000eb00840f54006d
:100ef000858f5c0027003600e50f5400e08f5c0012
:100f000002003e0068002000090020000800be002a
:100f1000b0ff07008000eb000000e0001d00320081
:100f200090007800a4ff2f00f5ff2f003101420050
:100f3000a1814a00880f5100898f590003003100b8
:100f4000a1029000050878000800370008814000e1
:100f500002087800a1019000230198001001780098
:100f60003119140021911c008888be0010017800fe
:100f70000000eb000200e00004003200a20190003b
:100f80000300e0000100320064004100704488006a
:100f9000e4804000010078004f04be00000006001d
:100fa0000001be008000eb000200e00006003400fb
:100fb00002007800a5fd070080007800e18f400066
:100fc00001003a008000eb000100780000000600fc
:100fd00000c0da000000060000c0da0000000600d1
:080fe00000c0da000000060069
:020000040000fa
:100fe800434f00004d5000004152000041440000b2
:100ff8004f52000000560000494e00002b20000010
:101008003e200000564900004e2d00000000000060
:020000040000fa
:101018000000fa003003200040118800000028007a
:101028000011880000402000101188000080fa009c
:10103800000006000000fa00203a800000c0a1006d
:1010480000d0a10000e0a100203a8800203a8000ea
:101058000080a1000090a10000a0a100203a880013
:101068000080fa00000006000000fa00e024ef000b
:10107800c002a900e224ef00c842a800c8e2a90003
:10108800c9c2a800c9e2a800c902a9000080fa00e4
:10109800000006000000fa00000d200090318800d2
:1010a8000080fa00000006000000fa0039c6a80017
:1010b800c03180000040a1000050a100c03188006c
:1010c800c03180000000a1000010a100c0318800dc
:1010d80039e6a8000080fa00000006000000fa00c7
:1010e800d4ff0700e0ff0700eaff0700eeff070054
:1010f800c7ff0700407f280073fd07000100370085
:1011080000000000c1318000001020000080600055
:101118000000e000faff3200f07f28006afd0700b7
:04112800f8ff370095
:020000040000fa
:10112c0000080000020000000200000001000000a6
:10113c00020800008800000002000000010000000e
:10114c00002808002908280008280800280828007a
:10115c00081808000000000000000000000000005b
:10116c000000000000000000000000000000000073
:10117c0000020800010150000851080050085000fe
:10118c000850080050084000080000000000000053
:10119c000000000000000000000000000000000043
:1011ac00000000000000020008020200780879002c
:1011bc0008780800780878000878080068080000ab
:1011cc000000000000000000000000000000000013
:1011dc0000000000000000000000000002082a00cf
:1011ec000852080000000000000000000000000091
:1011fc000000000092080000020000000000000047
:10120c008a08000004000000020000000600000034
:10121c00000000008e080000040000000000000028
:10122c009408000002000000000000000000000014
:020000040000fa
:0200000401f009
:04000000ffff0000fe
:020000040000fa
:0200000401f009
:04000800ffff0000f6
:020000040000fa
:0200000401f009
:04000c00f9ff0000f8
:020000040000fa
:0200000401f009
:0400100033ff0000ba
:020000040000fa
:0200000401f009
:040014005fff00008a
:020000040000fa
:0200000401f009
:04001800ffff0000e6
:020000040000fa
:0200000401f009
:04001c00fdff0000e4
:00000001FF
